:100000000C945D000C9485000C9485000C94850084
:100010000C9485000C9485000C9485000C9485004C
:100020000C9485000C9467020C9485000C94850058
:100030000C9485000C9485000C9485000C9485002C
:100040000C94C5010C9485000C9435020C940F029D
:100050000C9485000C9485000C9485000C9485000C
:100060000C9485000C94850000000008000201003B
:100070000003040700000000000000000000000072
:10008000250028002B0000000000240027002A0083
:10009000040404040404040402020202020203032E
:1000A0000303030301020408102040800102040836
:1000B00010200102040810200F0411241FBECFEFEE
:1000C000D8E0DEBFCDBF11E0A0E0B1E0ECE7F9E0A1
:1000D00002C005900D92A231B107D9F721E0A2E14B
:1000E000B1E001C01D92A33CB207E1F710E0CDE5FD
:1000F000D0E004C02197FE010E945004CC35D10706
:10010000C9F70E9403030C94BC040C940000CF9325
:10011000DF9390E0FC01EC55FF4F249180579F4FF7
:10012000FC0184918823D1F090E0880F991FFC0195
:10013000EA57FF4FA591B491FC01E458FF4FC591D8
:10014000D49161110EC09FB7F8948C91E22FE09585
:100150008E238C932881E223E8839FBFDF91CF9188
:1001600008958FB7F894EC91E22BEC938FBFF6CF04
:10017000AF92BF92CF92DF92EF92FF920F931F93B5
:10018000CF93DF936C017B018B01040F151FEB01F3
:100190005E01AE18BF08C017D10759F06991D601AA
:1001A000ED91FC910190F081E02DC6010995892B1C
:1001B00079F7C501DF91CF911F910F91FF90EF90DB
:1001C000DF90CF90BF90AF900895FC01538D448D88
:1001D000252F30E0842F90E0821B930B541710F0F2
:1001E000CF96089501970895FC01918D828D9817FF
:1001F00061F0A28DAE0FBF2FB11D5D968C91928DD7
:100200009F5F9F73928F90E008958FEF9FEF089507
:10021000FC01918D828D981731F0828DE80FF11DD0
:10022000858D90E008958FEF9FEF0895FC01918DEB
:10023000228D892F90E0805C9F4F821B91098F73E4
:100240009927089583E191E00E94160121E0892B0E
:1002500009F420E0822F089580E090E0892B29F0B6
:100260000E94220181110C9400000895FC01A48DCC
:10027000A80FB92FB11DA35ABF4F2C91848D90E0C8
:1002800001968F739927848FA689B7892C93A089AB
:10029000B1898C91837080648C93938D848D981335
:1002A00006C00288F389E02D80818F7D80830895C8
:1002B000EF92FF920F931F93CF93DF93EC0181E0B6
:1002C000888F9B8D8C8D98131AC0E889F98980815D
:1002D00085FF15C09FB7F894EE89FF896083E88990
:1002E000F98980818370806480839FBF81E090E082
:1002F000DF91CF911F910F91FF90EF900895F62E0F
:100300000B8D10E00F5F1F4F0F731127E02E8C8DA8
:100310008E110CC00FB607FCFACFE889F9898081ED
:1003200085FFF5CFCE010E943601F1CFEB8DEC0FAA
:10033000FD2FF11DE35AFF4FF0829FB7F8940B8F0A
:10034000EA89FB8980818062CFCFCF93DF93EC0174
:10035000888D8823B9F0AA89BB89E889F9898C91AD
:1003600085FD03C0808186FD0DC00FB607FCF7CF69
:100370008C9185FFF2CF808185FFEDCFCE010E9469
:100380003601E9CFDF91CF9108951F920F920FB6FA
:100390000F9211242F933F938F939F93AF93BF930B
:1003A0008091BF019091C001A091C101B091C201A3
:1003B0003091BE0123E0230F2D3758F50196A11D82
:1003C000B11D2093BE018093BF019093C001A09303
:1003D000C101B093C2018091BA019091BB01A0917B
:1003E000BC01B091BD010196A11DB11D8093BA0160
:1003F0009093BB01A093BC01B093BD01BF91AF919D
:100400009F918F913F912F910F900FBE0F901F9052
:10041000189526E8230F0296A11DB11DD2CF1F9279
:100420000F920FB60F9211242F933F934F935F9328
:100430006F937F938F939F93AF93BF93EF93FF93AC
:1004400083E191E00E943601FF91EF91BF91AF915E
:100450009F918F917F916F915F914F913F912F91DC
:100460000F900FBE0F901F9018951F920F920FB60E
:100470000F9211242F938F939F93EF93FF93E0910B
:100480002301F09124018081E0912901F0912A015A
:1004900082FD1BC0908180912C018F5F8F73209112
:1004A0002D01821741F0E0912C01F0E0ED5EFE4F4E
:1004B000958F80932C01FF91EF919F918F912F91B8
:1004C0000F900FBE0F901F9018958081F4CF1F9250
:1004D0000F920FB60F9211242F933F934F935F9378
:1004E0006F937F938F939F93AF93BF93EF93FF93FC
:1004F0008091B0019091B10101969093B1018093E8
:10050000B0018091B6019091B7016091B0017091F6
:10051000B1010E943C0424E6289FB001299F700D80
:10052000112490E080E00E945B042091B2013091A0
:10053000B3014091B4015091B5010E94560481115C
:100540002EC0EDE6F0E09491E9EAF0E08491E5E96F
:10055000F0E0E491EE23E9F020911201992349F0B3
:100560009330C1F168F5913009F43AC0923009F442
:100570003BC0F0E0EE0FFF1FE458FF4FA591B49190
:100580009FB7F894EC9121113CC080958E238C93F9
:100590009FBF8091120191E0892780931201FF9102
:1005A000EF91BF91AF919F918F917F916F915F91EB
:1005B0004F913F912F910F900FBE0F901F90189564
:1005C0009730A9F09830C9F0943099F69091800056
:1005D0009F7D03C0909180009F7790938000C9CF4A
:1005E00094B59F7794BDC5CF94B59F7DFBCF909177
:1005F000B0009F779093B000BCCF9091B0009F7DEA
:10060000F9CF8E2BC4CF789484B5826084BD84B535
:10061000816084BD85B5826085BD85B5816085BDFD
:1006200080916E00816080936E00109281008091B5
:10063000810082608093810080918100816080933D
:100640008100809180008160809380008091B10062
:1006500084608093B1008091B00081608093B0008D
:1006600080917A00846080937A0080917A00826021
:1006700080937A0080917A00816080937A008091E3
:100680007A00806880937A001092C10061E085E072
:100690000E94870060E082E00E94870060E083E0C3
:1006A0000E9487008FB78F778FBF80917000816025
:1006B0008093700083E08093B1008FB780688FBF14
:1006C000E0912301F091240182E08083E0911F01F9
:1006D000F09120011082E0912101F09122018FEC34
:1006E000808310922B01E0912701F091280186E090
:1006F0008083E0912501F0912601808180618083D3
:10070000E0912501F0912601808188608083E0914D
:100710002501F0912601808180688083E091250188
:10072000F091260180818F7D808308EE13E084E6BE
:10073000982E90E0E92E90E0F92E22E3C22ED12CE3
:1007400034EFA32EBB24B394C091B801D091B9016A
:100750006091B2017091B3018091B4019091B501A3
:100760002097D9F1C130D10509F5B092B701A09217
:10077000B6018091B6019091B701B8010E943C0486
:10078000989EB001999E700D112490E080E00E9427
:100790005B042091B0013091B101283E334030F02C
:1007A0001092B1011092B001D0E0C0E0E114F10468
:1007B000B9F2D093B901C093B8016093B2017093BC
:1007C000B3018093B4019093B5010E942201882364
:1007D00009F4BACF0E940000B7CFD092B701C092FF
:1007E000B6018091B6019091B701B8010E943C0416
:1007F000989EB001999E700D112490E080E00E94B7
:100800005B042091B0013091B101283E334070F279
:100810001092B1011092B001C1E0D0E0C7CFE3E186
:10082000F1E01382128288EE93E0A0E0B0E08483CE
:100830009583A683B78384E091E09183808385ECE0
:1008400090E09587848784EC90E09787868780EC9A
:1008500090E0918B808B81EC90E0938B828B82EC8B
:1008600090E0958B848B86EC90E0978B868B118E35
:10087000128E138E148E0895AA1BBB1B51E107C064
:10088000AA1FBB1FA617B70710F0A61BB70B881F20
:10089000991F5A95A9F780959095BC01CD010895AF
:1008A000EE0FFF1F0590F491E02D09940E9498042B
:1008B00008F481E00895E89409C097FB3EF4909510
:1008C0008095709561957F4F8F4F9F4F9923A9F029
:1008D000F92F96E9BB279395F695879577956795B8
:1008E000B795F111F8CFFAF4BB0F11F460FF1BC0FC
:1008F0006F5F7F4F8F4F9F4F16C0882311F096E98F
:1009000011C0772321F09EE8872F762F05C066233C
:1009100071F096E8862F70E060E02AF09A95660FF5
:10092000771F881FDAF7880F9695879597F90895AE
:10093000990F0008550FAA0BE0E8FEEF16161706F0
:10094000E807F907C0F012161306E407F50798F058
:10095000621B730B840B950B39F40A2661F0232B71
:10096000242B252B21F408950A2609F4A140A695ED
:0C0970008FEF811D811D0895F894FFCFCA
:10097C00000000005801B800E500A5011601F400C4
:02098C00080160
:00000001FF
