:100000000C9462000C948A000C948A000C948A0070
:100010000C948A000C948A000C948A000C948A0038
:100020000C948A000C94BE020C948A000C948A00F2
:100030000C948A000C948A000C948A000C948A0018
:100040000C941C020C948A000C948C020C94660292
:100050000C948A000C948A000C948A000C948A00F8
:100060000C948A000C948A000000000025002800EF
:100070002B0000000000240027002A0000000000E0
:1000800023002600290004040404040404040202DA
:100090000202020203030303030301020408102007
:1000A0004080010204081020010204081020000012
:1000B0000008000201000003040700000000000027
:1000C0000000DB0311241FBECFEFD8E0DEBFCDBFA1
:1000D00011E0A0E0B1E0E0E2F8E002C005900D928E
:1000E000A231B107D9F721E0A2E1B1E001C01D9230
:1000F000AD3BB207E1F710E0C2E6D0E004C02197C3
:10010000FE010E940804C136D107C9F70E942703E7
:100110000C940E040C940000833081F028F481309C
:1001200099F08230A9F008958730A9F08830C9F09D
:100130008430B1F4809180008F7D03C08091800075
:100140008F7780938000089584B58F7784BD08955C
:1001500084B58F7DFBCF8091B0008F778093B00006
:1001600008958091B0008F7DF9CFCF93DF93282F32
:1001700030E0F901E255FF4F8491F901E656FF4F57
:10018000D491F901EA57FF4FC491CC23A1F081111A
:100190000E948C00EC2FF0E0EE0FFF1FE458FF4FA1
:1001A000A591B491EC91ED2381E090E009F480E019
:1001B000DF91CF91089580E090E0FACFCF93DF9365
:1001C00090E0FC01E656FF4F24918A579F4FFC01B7
:1001D00084918823D1F090E0880F991FFC01EE589C
:1001E000FF4FA591B491FC01E859FF4FC591D491FF
:1001F00061110EC09FB7F8948C91E22FE0958E2389
:100200008C932881E223E8839FBFDF91CF910895EB
:100210008FB7F894EC91E22BEC938FBFF6CFAF92AF
:10022000BF92CF92DF92EF92FF920F931F93CF93E3
:10023000DF936C017B018B01040F151FEB015E0145
:10024000AE18BF08C017D10759F06991D601ED91DA
:10025000FC910190F081E02DC6010995892B79F779
:10026000C501DF91CF911F910F91FF90EF90DF902B
:10027000CF90BF90AF900895FC01538D448D252FF2
:1002800030E0842F90E0821B930B541710F0CF9630
:10029000089501970895FC01918D828D981761F062
:1002A000A28DAE0FBF2FB11D5D968C91928D9F5F79
:1002B0009F73928F90E008958FEF9FEF0895FC0158
:1002C000918D828D981731F0828DE80FF11D858D0B
:1002D00090E008958FEF9FEF0895FC01918D228D9E
:1002E000892F90E0805C9F4F821B91098F73992723
:1002F000089585E191E00E946D0121E0892B09F4C8
:1003000020E0822F089580E090E0892B29F00E9460
:10031000790181110C9400000895FC01A48DA80FAF
:10032000B92FB11DA35ABF4F2C91848D90E0019637
:100330008F739927848FA689B7892C93A089B18957
:100340008C91837080648C93938D848D981306C0F8
:100350000288F389E02D80818F7D80830895EF925C
:10036000FF920F931F93CF93DF93EC0181E0888F6F
:100370009B8D8C8D98131AC0E889F989808185FF3F
:1003800015C09FB7F894EE89FF896083E889F989E1
:1003900080818370806480839FBF81E090E0DF91E3
:1003A000CF911F910F91FF90EF900895F62E0B8D36
:1003B00010E00F5F1F4F0F731127E02E8C8D8E11F1
:1003C0000CC00FB607FCFACFE889F989808185FF58
:1003D000F5CFCE010E948D01F1CFEB8DEC0FFD2FFB
:1003E000F11DE35AFF4FF0829FB7F8940B8FEA8913
:1003F000FB8980818062CFCFCF93DF93EC01888D22
:100400008823B9F0AA89BB89E889F9898C9185FD8F
:1004100003C0808186FD0DC00FB607FCF7CF8C911D
:1004200085FFF2CF808185FFEDCFCE010E948D0147
:10043000E9CFDF91CF9108951F920F920FB60F92DF
:1004400011242F933F938F939F93AF93BF938091EA
:10045000B9019091BA01A091BB01B091BC0130915A
:10046000B80123E0230F2D3758F50196A11DB11DCA
:100470002093B8018093B9019093BA01A093BB0176
:10048000B093BC018091B4019091B501A091B601E7
:10049000B091B7010196A11DB11D8093B401909355
:1004A000B501A093B601B093B701BF91AF919F91F1
:1004B0008F913F912F910F900FBE0F901F90189525
:1004C00026E8230F0296A11DB11DD2CF1F920F92D5
:1004D0000FB60F9211242F933F934F935F936F9317
:1004E0007F938F939F93AF93BF93EF93FF9385E198
:1004F00091E00E948D01FF91EF91BF91AF919F918B
:100500008F917F916F915F914F913F912F910F90BC
:100510000FBE0F901F9018951F920F920FB60F925B
:1005200011242F938F939F93EF93FF93E0912501D5
:10053000F09126018081E0912B01F0912C0182FD48
:100540001BC0908180912E018F5F8F7320912F01AE
:10055000821741F0E0912E01F0E0EB5EFE4F958FA7
:1005600080932E01FF91EF919F918F912F910F908A
:100570000FBE0F901F9018958081F4CF1F920F929D
:100580000FB60F9211241F932F933F934F935F93B6
:100590006F937F938F939F93AF93BF93CF93DF938B
:1005A000EF93FF9380911301909114010196909322
:1005B0001401809313012091130130911401809153
:1005C000B2019091B3018217930758F5E3EBF0E085
:1005D0008491EFE9F0E0D491EBE8F0E0C491CC2312
:1005E000B1F01091120181110E948C00EC2FF0E00B
:1005F000EE0FFF1FE859FF4FA591B4918FB7F89404
:10060000EC91111122C0D095DE23DC938FBF809135
:10061000120191E089278093120110921401109227
:100620001301FF91EF91DF91CF91BF91AF919F9116
:100630008F917F916F915F914F913F912F911F917A
:100640000F900FBE0F901F901895DE2BDECF789481
:1006500084B5826084BD84B5816084BD85B58260C7
:1006600085BD85B5816085BD80916E008160809378
:100670006E001092810080918100826080938100E1
:1006800080918100816080938100809180008160F1
:10069000809380008091B10084608093B10080914C
:1006A000B00081608093B00080917A008460809374
:1006B0007A0080917A00826080937A0080917A003B
:1006C000816080937A0080917A00806880937A00BC
:1006D0001092C10061E085E00E94DE0060E082E0EF
:1006E0000E94DE0060E083E00E94DE008FB78F771B
:1006F0008FBF8091700081608093700087E080934D
:10070000B1008FB780688FBFE0912501F09126017D
:1007100082E08083E0912101F09122011082E0913A
:100720002301F09124018FEC808310922D01E09140
:100730002901F0912A0186E08083E0912701F09160
:100740002801808180618083E0912701F091280158
:10075000808188608083E0912701F0912801808169
:1007600080688083E0912701F091280180818F7D4E
:100770008083C0E0D0E00FE010E088E0E82EF12CAC
:1007800082E00E94B500019721F41093B301009319
:10079000B20183E00E94B500019721F4F092B30109
:1007A000E092B201209761F30E947901882341F31E
:1007B0000E940000E5CFE5E1F1E01382128288EEAD
:1007C00093E0A0E0B0E084839583A683B78384E0C0
:1007D00091E09183808385EC90E09587848784EC19
:1007E00090E09787868780EC90E0918B808B81ECFE
:1007F00090E0938B828B82EC90E0958B848B86ECDF
:1008000090E0978B868B118E128E138E148E089526
:10081000EE0FFF1F0590F491E02D0994F894FFCF9F
:1008200000000000AF010F013C01FC016D014B0114
:020830005F0166
:00000001FF
