:100000000C9462000C948A000C948A000C948A0070
:100010000C948A000C948A000C948A000C948A0038
:100020000C948A000C948A000C948A000C948A0028
:100030000C948A000C948A000C948A000C948A0018
:100040000C9432020C948A000C948A000C948A005E
:100050000C948A000C948A000C948A000C948A00F8
:100060000C948A000C948A00000000080002010031
:100070000003040700000000000000000102040863
:100080001020408001020408102001020408102002
:10009000040404040404040402020202020203032E
:1000A00003030303000000002300260029000000D2
:1000B0000000250028002B0000000000240027007D
:1000C0002A00B00011241FBECFEFD8E0DEBFCDBFA5
:1000D00011E0A0E0B1E0E6EBF7E002C005900D9280
:1000E000A431B107D9F721E0A4E1B1E001C01D922C
:1000F000A533B207E1F710E0C4ECD0E004C02297CA
:10010000FE010E94D503C23CD107C9F70E94C40377
:100110000C94D9030C94000020E042E060E184E1FB
:1001200091E00E946E0160E081E00C94EB0284E1BA
:1001300091E00E945F0181E00E945A03019731F42F
:1001400060E071E084E191E00E94C10381E00E94DF
:100150005A03892B21F484E191E00C94580108950D
:10016000CF92EF920F9384E0C82E95E0E92E06E03F
:1001700027E048E069E084E191E00E940C020F91E1
:10018000EF90CF900895CF93DF93EC0160E08E81E4
:100190000E94240381E090E00E947C0261E08E8155
:1001A0000E94240381E090E00E947C0260E08E8146
:1001B0000E94240384E690E0DF91CF910C947C02AE
:1001C000EF92FF920F931F93CF93DF938C01C0E0C8
:1001D000D0E0E62EF12CB7010C2E02C07595679584
:1001E0000A94E2F76170F801EC0FFD1F87810E940D
:1001F00024032196C430D10571F7C801DF91CF9156
:100200001F910F91FF90EF900C94C300EF92FF921B
:100210000F931F93CF93DF938C01C0E0D0E0E62EC5
:10022000F12CB7010C2E02C0759567950A94E2F780
:100230006170F801EC0FFD1F87810E942403219655
:10024000C830D10571F7C801DF91CF911F910F918F
:10025000FF90EF900C94C3001F93CF93DF93EC01BA
:10026000162F642F8C810E9424038D818F3F19F0FB
:1002700060E00E9424038F85612F84FF06C0CE01B9
:10028000DF91CF911F910C94060170E084E0759589
:1002900067958A95E1F7CE010E94E000612FCE01BB
:1002A000DF91CF911F910C94E00040E00C942C0161
:1002B00061E00E94550180ED97E00C947C0262E0C1
:1002C0000E94550180ED97E00C947C02FC0160894E
:1002D000262F2460208B6C600C9455010F931F9384
:1002E000CF93DF93EC01423018F08F8588608F87C1
:1002F0004B8B1C8A80E48D8B6E8B70E0605C7F4F33
:100300006F8B222329F0413019F48F8584608F8709
:1003100061E08C810E94EB028D818F3F19F061E0DA
:100320000E94EB0261E08E810E94EB0200E010E08F
:100330008F8584FF03C088E090E002C084E090E0F5
:100340000817190754F4FE01E00FF11F61E08781DF
:100350000E94EB020F5F1F4FEBCF80E593EC0E94F2
:100360007C0260E08C810E94240360E08E810E9408
:1003700024038D818F3F19F060E00E9424036F8574
:1003800064FD1DC063E0CE010E94E00084E991E1BC
:100390000E947C0263E0CE010E94E00084E991E1CA
:1003A0000E947C0263E0CE010E94E00086E990E0BA
:1003B0000E947C0262E0CE010E94E00016C06062F2
:1003C000CE010E94550184E991E10E947C026F8573
:1003D0006062CE010E94550186E990E00E947C0295
:1003E0006F856062CE010E9455016F856062CE010B
:1003F0000E94550184E0888BCE010E946601CE01E7
:100400000E94580182E0898B66E0CE01DF91CF9196
:100410001F910F910C945501CF92EF920F93FC0115
:10042000138212828FE091E09183808364838FEF47
:100430008583468327830087E186C28613861486D8
:1004400015861686178620E041E060E1CF010F9106
:10045000EF90CF900C946E0141E00E942C0181E05E
:1004600090E008951F920F920FB60F9211242F93D0
:100470003F938F939F93AF93BF9380912D01909162
:100480002E01A0912F01B091300130912C0123E079
:10049000230F2D3720F40196A11DB11D05C026E8BC
:1004A000230F0296A11DB11D20932C0180932D01D5
:1004B00090932E01A0932F01B093300180913101D0
:1004C00090913201A0913301B09134010196A11DA8
:1004D000B11D8093310190933201A0933301B09309
:1004E0003401BF91AF919F918F913F912F910F90C8
:1004F0000FBE0F901F9018958230910538F0880F2D
:10050000991F880F991F05970197F1F7089578941F
:1005100084B5826084BD84B5816084BD85B5826008
:1005200085BD85B5816085BDEEE6F0E080818160A6
:100530008083E1E8F0E010828081826080838081A6
:1005400081608083E0E8F0E0808181608083E1EB7E
:10055000F0E0808184608083E0EBF0E08081816066
:100560008083EAE7F0E0808184608083808182601C
:100570008083808181608083808180688083109205
:10058000C1000895833081F028F4813099F08230E1
:10059000A1F008958730A9F08830B9F08430D1F403
:1005A000809180008F7D03C0809180008F77809341
:1005B0008000089584B58F7702C084B58F7D84BD97
:1005C00008958091B0008F7703C08091B0008F7D37
:1005D0008093B0000895CF93DF9390E0FC01E4583E
:1005E000FF4F2491FC01E057FF4F8491882349F18C
:1005F00090E0880F991FFC01E854FF4FA591B4913A
:1006000082559F4FFC01C591D4919FB7611108C0DD
:10061000F8948C91209582238C93888182230AC040
:10062000623051F4F8948C91322F309583238C935F
:100630008881822B888304C0F8948C91822B8C93C0
:100640009FBFDF91CF9108950F931F93CF93DF93B7
:100650001F92CDB7DEB7282F30E0F901E859FF4FE0
:100660008491F901E458FF4F1491F901E057FF4FCD
:1006700004910023C9F0882321F069830E94C202FB
:100680006981E02FF0E0EE0FFF1FE255FF4FA591CB
:10069000B4919FB7F8948C91611103C01095812398
:1006A00001C0812B8C939FBF0F90DF91CF911F9141
:1006B0000F910895CF93DF93282F30E0F901E85987
:1006C000FF4F8491F901E458FF4FD491F901E057AD
:1006D000FF4FC491CC2391F081110E94C202EC2FF4
:1006E000F0E0EE0FFF1FEC55FF4FA591B4912C9158
:1006F0002D2381E090E021F480E002C080E090E0D2
:10070000DF91CF910895CF92DF92EF92FF920F93F6
:100710001F93CF93DF937C016A01EB0100E010E0AF
:100720000C151D0571F06991D701ED91FC910190B7
:10073000F081E02DC7010995892B19F00F5F1F4F3C
:10074000EFCFC801DF91CF911F910F91FF90EF90F4
:10075000DF90CF9008956115710581F0DB010D9058
:100760000020E9F7AD0141505109461B570BDC0150
:10077000ED91FC910280F381E02D099480E090E0FE
:1007800008950C94AB0308950E9487020E94C3034E
:100790000E948C00C0E0D0E00E9497002097E1F317
:1007A0000E940000F9CFEE0FFF1F0590F491E02D9D
:0607B0000994F894FFCF4C
:1007B600686F6C61206D756E646F00000000002C20
:0407C60002830300A7
:00000001FF
