:100000000C9462000C948A000C948A000C948A0070
:100010000C948A000C948A000C948A000C948A0038
:100020000C948A000C948A000C948A000C948A0028
:100030000C948A000C9419010C948A000C948A0088
:100040000C94BA020C948A000C948A000C948A00D6
:100050000C948A000C948A000C948A000C948A00F8
:100060000C948A000C948A00000000080002010031
:100070000003040700000000000000000102040863
:100080001020408001020408102001020408102002
:10009000040404040404040402020202020203032E
:1000A00003030303000000002300260029000000D2
:1000B0000000250028002B0000000000240027007D
:1000C0002A00060111241FBECFEFD8E0DEBFCDBF4E
:1000D00011E0A0E0B1E0E6E5FAE002C005900D9283
:1000E000A830B107D9F721E0A8E0B1E001C01D9226
:1000F000A433B207E1F710E0C4ECD0E004C02297CB
:10010000FE010E942505C23CD107C9F70E94F204F6
:100110000C9429050C94000080910801909109012C
:10012000019729F580910A0190910B010196909316
:100130000B0180930A01883E934069F480910C0181
:1001400090910D01019690930D0180930C011092F6
:100150000B0110920A0180910C0190910D01CC9736
:1001600034F08CE390E090930D0180930C0108959E
:10017000E1E8F0E080E180831092800021E02093AC
:10018000280180E49FE190932A01809329019093B4
:1001900087008093860081E180838CE890E09093D3
:1001A00027018093260120936F0020E042E060E168
:1001B0008EE091E00E94F60160E083E00C9473030E
:1001C00083E00E94E2038130910581F4909309015C
:1001D000809308018EE091E00E94D50110920B01FE
:1001E00010920A0110920D0110920C0140E060E0A3
:1001F0008EE091E00E94DC0160910C0170910D0194
:100200004AE050E08EE091E00C94E904CF92EF9246
:100210000F9388E0C82E99E0E92E0AE02BE04CE02D
:100220006DE08EE091E00E9494020F91EF90CF90EC
:1002300008951F920F920FB60F9211242F933F93A0
:100240004F935F936F937F938F939F93AF93BF93DE
:10025000EF93FF93E0912601F09127010995FF911B
:10026000EF91BF91AF919F918F917F916F915F912E
:100270004F913F912F910F900FBE0F901F901895A7
:10028000CF93DF93EC0160E08E810E94AC0381E0AC
:1002900090E00E94040361E08E810E94AC0381E043
:1002A00090E00E94040360E08E810E94AC0384E62B
:1002B00090E0DF91CF910C940403EF92FF920F93A3
:1002C0001F93CF93DF938C01C0E0D0E0E62EF12C9A
:1002D000B7010C2E02C0759567950A94E2F761701C
:1002E000F801EC0FFD1F87810E94AC032196C430FA
:1002F000D10571F7C801DF91CF911F910F91FF9048
:10030000EF900C944001EF92FF920F931F93CF93C5
:10031000DF938C01C0E0D0E0E62EF12CB7010C2E6B
:1003200002C0759567950A94E2F76170F801EC0FC9
:10033000FD1F87810E94AC032196C830D10571F75B
:10034000C801DF91CF911F910F91FF90EF900C9416
:1003500040011F93CF93DF93EC01162F642F8C8104
:100360000E94AC038D818F3F19F060E00E94AC03C6
:100370008F85612F84FF06C0CE01DF91CF911F9141
:100380000C94830170E084E0759567958A95E1F798
:10039000CE010E945D01612FCE01DF91CF911F91AF
:1003A0000C945D0140E00C94A90161E00E94D2012F
:1003B00080ED97E00C940403443008F043E0FC0126
:1003C0002389421710F04FEF420FFC01E40FF11D9B
:1003D0002489260F2068622F0C94D201FC016089C9
:1003E000262F2460208B6C600C94D2010F931F93F6
:1003F000CF93DF93EC01423018F08F8588608F87B0
:100400004B8B1C8A80E48D8B6E8B70E0605C7F4F21
:100410006F8B222329F0413019F48F8584608F87F8
:1004200061E08C810E9473038D818F3F19F061E040
:100430000E94730361E08E810E94730300E010E06C
:100440008F8584FF03C088E090E002C084E090E0E4
:100450000817190754F4FE01E00FF11F61E08781CE
:100460000E9473030F5F1F4FEBCF80E593EC0E9458
:10047000040360E08C810E94AC0360E08E810E94E6
:10048000AC038D818F3F19F060E00E94AC036F8553
:1004900064FD1DC063E0CE010E945D0184E991E12D
:1004A0000E94040363E0CE010E945D0184E991E1B2
:1004B0000E94040363E0CE010E945D0186E990E0A2
:1004C0000E94040362E0CE010E945D0116C06062DA
:1004D000CE010E94D20184E991E10E9404036F855C
:1004E0006062CE010E94D20186E990E00E9404037E
:1004F0006F856062CE010E94D2016F856062CE017D
:100500000E94D20184E0888BCE010E94EE01CE01D0
:100510000E94D50182E0898B66E0CE01DF91CF9108
:100520001F910F910C94D201CF92EF920F93FC0187
:100530001382128284E091E09183808364838FEF41
:100540008583468327830087E186C28613861486C7
:1005500015861686178620E041E060E1CF010F91F5
:10056000EF90CF900C94F60141E00E94A90181E048
:1005700090E008951F920F920FB60F9211242F93BF
:100580003F938F939F93AF93BF9380912C01909152
:100590002D01A0912E01B0912F0130912B0123E06C
:1005A000230F2D3720F40196A11DB11D05C026E8AB
:1005B000230F0296A11DB11D20932B0180932C01C6
:1005C00090932D01A0932E01B0932F0180913001C3
:1005D00090913101A0913201B09133010196A11D9A
:1005E000B11D8093300190933101A0933201B093FB
:1005F0003301BF91AF919F918F913F912F910F90B8
:100600000FBE0F901F9018958230910538F0880F1B
:10061000991F880F991F05970197F1F7089578940E
:1006200084B5826084BD84B5816084BD85B58260F7
:1006300085BD85B5816085BDEEE6F0E08081816095
:100640008083E1E8F0E01082808182608083808195
:1006500081608083E0E8F0E0808181608083E1EB6D
:10066000F0E0808184608083E0EBF0E08081816055
:100670008083EAE7F0E0808184608083808182600B
:1006800080838081816080838081806880831092F4
:10069000C1000895833081F028F4813099F08230D0
:1006A000A1F008958730A9F08830B9F08430D1F4F2
:1006B000809180008F7D03C0809180008F77809330
:1006C0008000089584B58F7702C084B58F7D84BD86
:1006D00008958091B0008F7703C08091B0008F7D26
:1006E0008093B0000895CF93DF9390E0FC01E4582D
:1006F000FF4F2491FC01E057FF4F8491882349F17B
:1007000090E0880F991FFC01E854FF4FA591B49128
:1007100082559F4FFC01C591D4919FB7611108C0CC
:10072000F8948C91209582238C93888182230AC02F
:10073000623051F4F8948C91322F309583238C934E
:100740008881822B888304C0F8948C91822B8C93AF
:100750009FBFDF91CF9108950F931F93CF93DF93A6
:100760001F92CDB7DEB7282F30E0F901E859FF4FCF
:100770008491F901E458FF4F1491F901E057FF4FBC
:1007800004910023C9F0882321F069830E944A0361
:100790006981E02FF0E0EE0FFF1FE255FF4FA591BA
:1007A000B4919FB7F8948C91611103C01095812387
:1007B00001C0812B8C939FBF0F90DF91CF911F9130
:1007C0000F910895CF93DF93282F30E0F901E85976
:1007D000FF4F8491F901E458FF4FD491F901E0579C
:1007E000FF4FC491CC2391F081110E944A03EC2F5A
:1007F000F0E0EE0FFF1FEC55FF4FA591B4912C9147
:100800002D2381E090E021F480E002C080E090E0C0
:10081000DF91CF910895CF92DF92EF92FF920F93E5
:100820001F93CF93DF937C016A01EB0100E010E09E
:100830000C151D0571F06991D701ED91FC910190A6
:10084000F081E02DC7010995892B19F00F5F1F4F2B
:10085000EFCFC801DF91CF911F910F91FF90EF90E3
:10086000DF90CF9008956115710581F0DB010D9047
:100870000020E9F7AD0141505109461B570BDC013F
:10088000ED91FC910280F381E02D099480E090E0ED
:100890000895DC01ED91FC910190F081E02D099427
:1008A0008F929F92AF92BF92DF92EF92FF920F933F
:1008B0001F93CF93DF93CDB7DEB7A1970FB6F89410
:1008C000DEBF0FBECDBF7C01F42FD52ECB0119A208
:1008D000223008F42AE08E010F5D1F4F822E912CEA
:1008E000A12CB12C6F2F7D2DA50194010E94010533
:1008F000F22FD32ECA01015011096A3014F4E0E33B
:1009000001C0E7E3E60FD801EC93232B242B252B22
:1009100049F7B801C7010E943304A1960FB6F894B5
:10092000DEBF0FBECDBFDF91CF911F910F91FF9022
:10093000EF90DF90BF90AF909F908F900895CF92EF
:10094000DF92EF92FF920F931F93CF93DF93EC010F
:100950006A017B012115310579F4E881F981019063
:10096000F081E02D642FDF91CF911F910F91FF90C7
:10097000EF90DF90CF9009942A303105E9F477FFAA
:100980001AC06DE20E9449048C0144275527BA0120
:100990004C195D096E097F092AE0CE010E945004BE
:1009A000800F911FDF91CF911F910F91FF90EF90DA
:1009B000DF90CF9008952AE0B701A601CE01DF9124
:1009C000CF911F910F91FF90EF90DF90CF900C94FB
:1009D00050049A01AB01662757FD6095762F0C9461
:1009E0009F0408950E940F030E94F1040E94B80022
:1009F000C0E0D0E00E94E0002097E1F30E940000F8
:100A0000F9CFA1E21A2EAA1BBB1BFD010DC0AA1F24
:100A1000BB1FEE1FFF1FA217B307E407F50720F067
:100A2000A21BB30BE40BF50B661F771F881F991FE2
:100A30001A9469F760957095809590959B01AC012B
:100A4000BD01CF010895EE0FFF1F0590F491E02D39
:060A50000994F894FFCFA9
:080A560000000000B4020B04D3
:107800000C94343C0C94513C0C94513C0C94513CE1
:107810000C94513C0C94513C0C94513C0C94513CB4
:107820000C94513C0C94513C0C94513C0C94513CA4
:107830000C94513C0C94513C0C94513C0C94513C94
:107840000C94513C0C94513C0C94513C0C94513C84
:107850000C94513C0C94513C0C94513C0C94513C74
:107860000C94513C0C94513C11241FBECFEFD8E036
:10787000DEBFCDBF11E0A0E0B1E0ECE9FFE702C060
:1078800005900D92A230B107D9F712E0A2E0B1E065
:1078900001C01D92AD30B107E1F70E942D3D0C945F
:1078A000CC3F0C94003C982F959595959595959582
:1078B000905D8F708A307CF0282F295A8091C0000B
:1078C00085FFFCCF9093C6008091C00085FFFCCF60
:1078D0002093C6000895282F205DF0CF982F809127
:1078E000C00085FFFCCF9093C6000895EF92FF92F1
:1078F0000F931F93EE24FF2487018091C00087FD22
:1079000017C00894E11CF11C011D111D81E4E8164B
:1079100082E4F8068FE0080780E0180770F3E09132
:107920000401F091050109958091C00087FFE9CF1E
:107930008091C6001F910F91FF90EF9008950E94D3
:10794000763C982F8091C00085FFFCCF9093C600B5
:1079500091362CF490330CF09053892F089597555D
:10796000892F08951F930E949F3C182F0E949F3CCF
:107970001295107F810F1F9108951F93182F882350
:1079800021F00E94763C1150E1F71F9108951F935A
:10799000182F0E94763C803249F0809103018F5F5E
:1079A000809303018530C1F01F9108958091C0003C
:1079B00085FFFCCF84E18093C6008091C00085FFE5
:1079C000FCCF1093C6008091C00085FFFCCF80E102
:1079D0008093C6001F910895E0910401F091050184
:1079E00009951F9108950E94763C803241F0809164
:1079F00003018F5F80930301853081F008958091AA
:107A0000C00085FFFCCF84E18093C6008091C00058
:107A100085FFFCCF80E18093C6000895E0910401CA
:107A2000F09105010995089540E951E08823A1F0FE
:107A30002D9A28EE33E0FA013197F1F721503040CA
:107A4000D1F72D9828EE33E0FA013197F1F7215064
:107A50003040D1F7815061F708953F924F925F9285
:107A60006F927F928F929F92AF92BF92CF92DF924E
:107A7000EF92FF920F931F93CF93DF93000080E16B
:107A80008093C4001092C50088E18093C10086E015
:107A90008093C2005098589A259A81E00E94143D24
:107AA00024E1F22E9EE1E92E85E9D82E0FE0C02ECA
:107AB00010E1B12EAA24A394B1E49B2EA6E58A2E50
:107AC000F2E57F2EE0E26E2E79E4572E63E5462E36
:107AD00050E5352E0E94763C8033B1F18133B9F107
:107AE000803409F46FC0813409F476C0823409F41B
:107AF00085C0853409F488C0803531F1823521F1A3
:107B0000813511F1853509F485C0863509F48DC0BC
:107B1000843609F496C0843709F403C1853709F423
:107B200072C1863709F466C0809103018F5F80932C
:107B30000301853079F6E0910401F0910501099582
:107B40000E94763C803351F60E94F33CC3CF0E94E2
:107B5000763C803249F78091C00085FFFCCFF092DF
:107B6000C6008091C00085FFFCCF9092C600809136
:107B7000C00085FFFCCF8092C6008091C00085FFC9
:107B8000FCCF7092C6008091C00085FFFCCF609250
:107B9000C6008091C00085FFFCCF5092C600809146
:107BA000C00085FFFCCF4092C6008091C00085FFD9
:107BB000FCCF3092C6008091C00085FFFCCFB09210
:107BC000C60088CF0E94763C863808F4BDCF0E945C
:107BD000763C0E94F33C7ECF0E94763C803809F4CC
:107BE0009CC0813809F40BC1823809F43CC1883942
:107BF00009F48FC080E00E94C73C6CCF84E10E94F2
:107C0000BD3C0E94F33C66CF85E00E94BD3C0E94D3
:107C1000F33C60CF0E94763C809306010E94763C44
:107C2000809307010E94F33C55CF0E94763C80333D
:107C300009F41DC183E00E94BD3C80E00E94C73C66
:107C400049CF0E94763C809309020E94763C809343
:107C5000080280910C028E7F80930C020E94763C79
:107C6000853409F415C18091080290910902892B8D
:107C700089F000E010E00E94763CF801E85FFE4FDA
:107C800080830F5F1F4F80910802909109020817AF
:107C9000190788F30E94763C803209F045CF809125
:107CA0000C0280FF01C16091060170910701660F0F
:107CB000771F7093070160930601A0910802B091AD
:107CC00009021097C9F0E8E0F1E09B01AD014E0F09
:107CD0005F1FF999FECF32BD21BD819180BDFA9A17
:107CE000F99A2F5F3F4FE417F50799F76A0F7B1F4B
:107CF00070930701609306018091C00085FFFCCF5F
:107D0000F092C6008091C00085FFFCCFB092C60003
:107D1000E1CE83E00E94C73CDDCE82E00E94C73CFA
:107D2000D9CE0E94763C809309020E94763C8093D3
:107D300008028091060190910701880F991F909386
:107D40000701809306010E94763C853409F4A6C0A1
:107D500080910C028E7F80930C020E94763C8032D0
:107D600009F0B8CE8091C00085FFFCCFF092C6002C
:107D7000609108027091090261157105B9F140E046
:107D800050E080910C02A82FA170B82FB27011C0E2
:107D9000BB2309F45CC0E0910601F0910701319624
:107DA000F0930701E09306014F5F5F4F46175707B7
:107DB000E8F4AA2369F3F999FECF209106013091E6
:107DC000070132BD21BDF89A90B58091C00085FFB2
:107DD000FCCF9093C6002F5F3F4F30930701209355
:107DE00006014F5F5F4F4617570718F38091C00099
:107DF00085FDE5CE8091C00085FFF8CFE0CE81E023
:107E00000E94C73C67CE0E94763C803209F08CCE3F
:107E10008091C00085FFFCCFF092C6008091C00029
:107E200085FFFCCFE092C6008091C00085FFFCCFAB
:107E3000D092C6008091C00085FFFCCFC092C600E2
:107E40008091C00085FFFCCFB092C60043CEE09188
:107E50000601F091070194918091C00085FFFCCF4D
:107E60009093C6009CCF80E10E94C73C33CE0E9415
:107E7000763C0E94763C182F0E94763C112309F430
:107E800083C0113009F484C08FE00E94C73C22CE29
:107E900080910C02816080930C02E5CE80910C02EF
:107EA000816080930C0259CF809107018823880F4D
:107EB000880B8A2180930B02809106019091070123
:107EC000880F991F90930701809306018091080203
:107ED00080FF09C080910802909109020196909359
:107EE000090280930802F894F999FECF1127E091D6
:107EF0000601F0910701C8E0D1E08091080290915D
:107F00000902103091F40091570001700130D9F34B
:107F100003E000935700E89500915700017001308D
:107F2000D9F301E100935700E89509901990009169
:107F3000570001700130D9F301E000935700E89534
:107F40001395103498F011270091570001700130FB
:107F5000D9F305E000935700E895009157000170B0
:107F60000130D9F301E100935700E895329602976A
:107F700009F0C7CF103011F00296E5CF112480919F
:107F8000C00085FFB9CEBCCE8EE10E94C73CA2CD19
:0C7F900085E90E94C73C9ECDF894FFCF0D
:027F9C00800063
:040000030000780081
:00000001FF
