:100000000C9462000C948A000C948A000C948A0070
:100010000C948A000C948A000C948A000C948A0038
:100020000C948A000C948A000C948A000C948A0028
:100030000C948A000C948A000C948A000C948A0018
:100040000C94D9030C948A000C948A000C948A00B6
:100050000C948A000C948A000C948A000C948A00F8
:100060000C948A000C948A00000000080002010031
:100070000003040700000000000000000102040863
:100080001020408001020408102001020408102002
:10009000040404040404040402020202020203032E
:1000A00003030303000000002300260029000000D2
:1000B0000000250028002B0000000000240027007D
:1000C0002A00450211241FBECFEFD8E0DEBFCDBF0E
:1000D00011E0A0E0B1E0E0EBFCE002C005900D9281
:1000E000A834B107D9F721E0A8E4B1E001C01D921E
:1000F000A137B207E1F710E0C4ECD0E004C02297CA
:10010000FE010E945206C23CD107C9F70E941F0699
:100110000C9456060C94000020E042E060E180E57B
:1001200091E00E94150360E081E00E949E0460E07F
:1001300082E00C949E04CF92DF92EF92FF920F9395
:100140001F9380914E0190914F01892BB1F480E56E
:1001500091E00E94F40260E071E080E591E00E948D
:10016000740542E060E080E591E00E94FB026BE0F4
:1001700071E080E591E00E94740581E00E940D0528
:100180000197F1F580914E0190914F01892BC1F5B6
:1001900082E00E940D05892B99F580E591E00E948F
:1001A000ED0280E591E00E94F4026AE371E080E5EF
:1001B00091E00E94740542E060E080E591E00E94D9
:1001C000FB020E94230460934A0170934B018093C9
:1001D0004C0190934D0180914801909149018536E1
:1001E000910534F482E00E940D05892B09F458C072
:1001F00080914801909149018436910509F460C0CD
:1002000082E00E940D050197E9F5809148019091E7
:10021000490118161906B4F580914E0190914F01CD
:10022000019721F480E591E00E94ED0280E591E0E4
:100230000E94F4026CE271E080E591E00E94740596
:1002400042E060E080E591E00E94FB02609148019D
:10025000709149014AE050E080E591E00E94160665
:1002600042E063E080E591E00E94FB026CE171E016
:1002700080E591E00E94740583E090E090934F0147
:1002800080934E0182E00E940D05019709F0F6C0AF
:100290008091480190914901892B09F4CFC0EEC0AB
:1002A00001E010E080914801909149018436910568
:1002B0000CF09ECF82E00E940D05892B19F198CF9A
:1002C00080914E0190914F01019709F099CF82E002
:1002D0000E940D05892B09F093CF82E00E940D0545
:1002E00021E0892B09F020E0822F0E940D05892B47
:1002F00009F086CF80914E0190914F01019709F04E
:100300007FCF48C00E942304C0904A01D0904B0187
:10031000E0904C01F0904D016C197D098E099F0908
:10032000643F71408105910508F4BCCF42E060E074
:1003300080E591E00E94FB026091480170914901C3
:100340004AE050E080E591E00E94160642E063E05A
:1003500080E591E00E94FB026CE171E080E591E0B4
:100360000E9474050E94230460934A0170934B011C
:1003700080934C0190934D018091480190914901E7
:100380000196909349018093480110934F01009387
:100390004E0188CF0E94230400914A0110914B0125
:1003A00020914C0130914D01601B710B820B930B1E
:1003B000683C710581059105B0F042E060E080E5A0
:1003C00091E00E94FB026EE171E080E591E00E9405
:1003D00074050E94230460934A0170934B0180933B
:1003E0004C0190934D010E94230400914A01109109
:1003F0004B0120914C0130914D01601B710B820B20
:10040000930B683C71058105910508F466CF42E0C5
:1004100060E080E591E00E94FB0263E271E080E52C
:1004200091E00E9474050E94230460934A01709336
:100430004B0180934C0190934D014FCF80914E0121
:1004400090914F01892B21F480E591E00E94ED020B
:1004500080E591E00E94F40264E371E080E591E0C0
:100460000E94740542E060E080E591E00E94FB029A
:1004700083E090E090934F0180934E011F910F9184
:10048000FF90EF90DF90CF900895CF92EF920F936F
:1004900088E0C82E99E0E92E0AE02BE04CE06DE000
:1004A00080E591E00E94B3030F91EF90CF90089503
:1004B000CF93DF93EC0160E08E810E94D70481E04E
:1004C00090E00E942F0461E08E810E94D70481E0B9
:1004D00090E00E942F0460E08E810E94D70484E6A1
:1004E00090E0DF91CF910C942F04EF92FF920F9345
:1004F0001F93CF93DF938C01C0E0D0E0E62EF12C68
:10050000B7010C2E02C0759567950A94E2F76170E9
:10051000F801EC0FFD1F87810E94D7042196C4309B
:10052000D10571F7C801DF91CF911F910F91FF9015
:10053000EF900C945802EF92FF920F931F93CF937A
:10054000DF938C01C0E0D0E0E62EF12CB7010C2E39
:1005500002C0759567950A94E2F76170F801EC0F97
:10056000FD1F87810E94D7042196C830D10571F7FD
:10057000C801DF91CF911F910F91FF90EF900C94E4
:1005800058021F93CF93DF93EC01162F642F8C81B9
:100590000E94D7048D818F3F19F060E00E94D7043C
:1005A0008F85612F84FF06C0CE01DF91CF911F910F
:1005B0000C949B0270E084E0759567958A95E1F74D
:1005C000CE010E947502612FCE01DF91CF911F9164
:1005D0000C94750240E00C94C10261E00E94EA02B2
:1005E00080ED97E00C942F0462E00E94EA0280ED17
:1005F00097E00C942F04443008F043E0FC01238979
:10060000421710F04FEF420FFC01E40FF11D248957
:10061000260F2068622F0C94EA02FC016089262FC5
:100620002460208B6C600C94EA020F931F93CF938D
:10063000DF93EC01423018F08F8588608F874B8BF9
:100640001C8A80E48D8B6E8B70E0605C7F4F6F8BBB
:10065000222329F0413019F48F8584608F8761E06F
:100660008C810E949E048D818F3F19F061E00E9471
:100670009E0461E08E810E949E0400E010E08F8560
:1006800084FF03C088E090E002C084E090E0081797
:10069000190754F4FE01E00FF11F61E087810E9409
:1006A0009E040F5F1F4FEBCF80E593EC0E942F0459
:1006B00060E08C810E94D70460E08E810E94D704A4
:1006C0008D818F3F19F060E00E94D7046F8564FD33
:1006D0001DC063E0CE010E94750284E991E10E9491
:1006E0002F0463E0CE010E94750284E991E10E942B
:1006F0002F0463E0CE010E94750286E990E00E941B
:100700002F0462E0CE010E94750216C06062CE0125
:100710000E94EA0284E991E10E942F046F856062E1
:10072000CE010E94EA0286E990E00E942F046F85C4
:100730006062CE010E94EA026F856062CE010E9473
:10074000EA0284E0888BCE010E940D03CE010E9454
:10075000ED0282E0898B66E0CE01DF91CF911F919F
:100760000F910C94EA02CF92EF920F93FC01138247
:10077000128284E491E09183808364838FEF858388
:10078000468327830087E186C286138614861586F2
:100790001686178620E041E060E1CF010F91EF90CF
:1007A000CF900C94150341E00E94C10281E090E0DB
:1007B00008951F920F920FB60F9211242F933F931B
:1007C0008F939F93AF93BF938091690190916A013A
:1007D000A0916B01B0916C013091680123E0230F6F
:1007E0002D3720F40196A11DB11D05C026E8230F69
:1007F0000296A11DB11D2093680180936901909319
:100800006A01A0936B01B0936C0180916D0190918E
:100810006E01A0916F01B09170010196A11DB11DF3
:1008200080936D0190936E01A0936F01B09370015E
:10083000BF91AF919F918F913F912F910F900FBEDC
:100840000F901F9018952FB7F894609169017091DF
:100850006A0180916B0190916C012FBF08958230E5
:10086000910538F0880F991F880F991F05970197F8
:10087000F1F70895789484B5826084BD84B5816071
:1008800084BD85B5826085BD85B5816085BDEEE698
:10089000F0E0808181608083E1E8F0E01082808177
:1008A00082608083808181608083E0E8F0E08081E5
:1008B00081608083E1EBF0E0808184608083E0EB05
:1008C000F0E0808181608083EAE7F0E080818460ED
:1008D0008083808182608083808181608083808149
:1008E000806880831092C1000895833081F028F4DD
:1008F000813099F08230A1F008958730A9F08830D6
:10090000B9F08430D1F4809180008F7D03C0809154
:1009100080008F7780938000089584B58F7702C020
:1009200084B58F7D84BD08958091B0008F7703C01A
:100930008091B0008F7D8093B0000895CF93DF93B6
:1009400090E0FC01E458FF4F2491FC01E057FF4F79
:100950008491882349F190E0880F991FFC01E854A5
:10096000FF4FA591B49182559F4FFC01C591D49141
:100970009FB7611108C0F8948C91209582238C93C5
:10098000888182230AC0623051F4F8948C91322F0E
:10099000309583238C938881822B888304C0F894BC
:1009A0008C91822B8C939FBFDF91CF9108950F93F1
:1009B0001F93CF93DF931F92CDB7DEB7282F30E080
:1009C000F901E859FF4F8491F901E458FF4F149160
:1009D000F901E057FF4F04910023C9F0882321F06B
:1009E00069830E9475046981E02FF0E0EE0FFF1F1C
:1009F000E255FF4FA591B4919FB7F8948C91611186
:100A000003C01095812301C0812B8C939FBF0F9051
:100A1000DF91CF911F910F910895CF93DF93282FEE
:100A200030E0F901E859FF4F8491F901E458FF4F94
:100A3000D491F901E057FF4FC491CC2391F081117B
:100A40000E947504EC2FF0E0EE0FFF1FEC55FF4FF6
:100A5000A591B4912C912D2381E090E021F480E0C8
:100A600002C080E090E0DF91CF910895CF92DF92B5
:100A7000EF92FF920F931F93CF93DF937C016A0154
:100A8000EB0100E010E00C151D0571F06991D70134
:100A9000ED91FC910190F081E02DC7010995892B22
:100AA00019F00F5F1F4FEFCFC801DF91CF911F915A
:100AB0000F91FF90EF90DF90CF9008956115710531
:100AC00081F0DB010D900020E9F7AD0141505109A3
:100AD000461B570BDC01ED91FC910280F381E02D68
:100AE000099480E090E008950C945E05DC01ED919E
:100AF000FC910190F081E02D09948F929F92AF922A
:100B0000BF92DF92EF92FF920F931F93CF93DF93E9
:100B1000CDB7DEB7A1970FB6F894DEBF0FBECDBF3D
:100B20007C01F42FD52ECB0119A2223008F42AE043
:100B30008E010F5D1F4F822E912CA12CB12C6F2F97
:100B40007D2DA50194010E942E06F22FD32ECA01FD
:100B5000015011096A3014F4E0E301C0E7E3E60F45
:100B6000D801EC93232B242B252B49F7B801C7017F
:100B70000E945E05A1960FB6F894DEBF0FBECDBFF2
:100B8000DF91CF911F910F91FF90EF90DF90BF9079
:100B9000AF909F908F900895CF92DF92EF92FF9247
:100BA0000F931F93CF93DF93EC016A017B01211513
:100BB000310579F4E881F9810190F081E02D642F0D
:100BC000DF91CF911F910F91FF90EF90DF90CF9029
:100BD00009942A303105E9F477FF1AC06DE20E94CA
:100BE00076058C0144275527BA014C195D096E0919
:100BF0007F092AE0CE010E947D05800F911FDF91C1
:100C0000CF911F910F91FF90EF90DF90CF900895BB
:100C10002AE0B701A601CE01DF91CF911F910F917C
:100C2000FF90EF90DF90CF900C947D059A01AB017F
:100C3000662757FD6095762F0C94CC0508950E9489
:100C40003A040E941E060E948C00C0E0D0E00E9480
:100C50009B002097E1F30E940000F9CFA1E21A2E39
:100C6000AA1BBB1BFD010DC0AA1FBB1FEE1FFF1F50
:100C7000A217B307E407F50720F0A21BB30BE40BA0
:100C8000F50B661F771F881F991F1A9469F76095E7
:100C90007095809590959B01AC01BD01CF010895A1
:100CA000EE0FFF1F0590F491E02D0994F894FFCF0B
:100CB000636F6D69656E7A652061006C6C656E614D
:100CC0007220656C2074616E717565002500465553
:100CD0004C4C0020202020202020200066756C6CC9
:100CE00020616C00726573657400726561647900DF
:080CF00000000000D3033605EB
:107800000C94343C0C94513C0C94513C0C94513CE1
:107810000C94513C0C94513C0C94513C0C94513CB4
:107820000C94513C0C94513C0C94513C0C94513CA4
:107830000C94513C0C94513C0C94513C0C94513C94
:107840000C94513C0C94513C0C94513C0C94513C84
:107850000C94513C0C94513C0C94513C0C94513C74
:107860000C94513C0C94513C11241FBECFEFD8E036
:10787000DEBFCDBF11E0A0E0B1E0ECE9FFE702C060
:1078800005900D92A230B107D9F712E0A2E0B1E065
:1078900001C01D92AD30B107E1F70E942D3D0C945F
:1078A000CC3F0C94003C982F959595959595959582
:1078B000905D8F708A307CF0282F295A8091C0000B
:1078C00085FFFCCF9093C6008091C00085FFFCCF60
:1078D0002093C6000895282F205DF0CF982F809127
:1078E000C00085FFFCCF9093C6000895EF92FF92F1
:1078F0000F931F93EE24FF2487018091C00087FD22
:1079000017C00894E11CF11C011D111D81E4E8164B
:1079100082E4F8068FE0080780E0180770F3E09132
:107920000401F091050109958091C00087FFE9CF1E
:107930008091C6001F910F91FF90EF9008950E94D3
:10794000763C982F8091C00085FFFCCF9093C600B5
:1079500091362CF490330CF09053892F089597555D
:10796000892F08951F930E949F3C182F0E949F3CCF
:107970001295107F810F1F9108951F93182F882350
:1079800021F00E94763C1150E1F71F9108951F935A
:10799000182F0E94763C803249F0809103018F5F5E
:1079A000809303018530C1F01F9108958091C0003C
:1079B00085FFFCCF84E18093C6008091C00085FFE5
:1079C000FCCF1093C6008091C00085FFFCCF80E102
:1079D0008093C6001F910895E0910401F091050184
:1079E00009951F9108950E94763C803241F0809164
:1079F00003018F5F80930301853081F008958091AA
:107A0000C00085FFFCCF84E18093C6008091C00058
:107A100085FFFCCF80E18093C6000895E0910401CA
:107A2000F09105010995089540E951E08823A1F0FE
:107A30002D9A28EE33E0FA013197F1F721503040CA
:107A4000D1F72D9828EE33E0FA013197F1F7215064
:107A50003040D1F7815061F708953F924F925F9285
:107A60006F927F928F929F92AF92BF92CF92DF924E
:107A7000EF92FF920F931F93CF93DF93000080E16B
:107A80008093C4001092C50088E18093C10086E015
:107A90008093C2005098589A259A81E00E94143D24
:107AA00024E1F22E9EE1E92E85E9D82E0FE0C02ECA
:107AB00010E1B12EAA24A394B1E49B2EA6E58A2E50
:107AC000F2E57F2EE0E26E2E79E4572E63E5462E36
:107AD00050E5352E0E94763C8033B1F18133B9F107
:107AE000803409F46FC0813409F476C0823409F41B
:107AF00085C0853409F488C0803531F1823521F1A3
:107B0000813511F1853509F485C0863509F48DC0BC
:107B1000843609F496C0843709F403C1853709F423
:107B200072C1863709F466C0809103018F5F80932C
:107B30000301853079F6E0910401F0910501099582
:107B40000E94763C803351F60E94F33CC3CF0E94E2
:107B5000763C803249F78091C00085FFFCCFF092DF
:107B6000C6008091C00085FFFCCF9092C600809136
:107B7000C00085FFFCCF8092C6008091C00085FFC9
:107B8000FCCF7092C6008091C00085FFFCCF609250
:107B9000C6008091C00085FFFCCF5092C600809146
:107BA000C00085FFFCCF4092C6008091C00085FFD9
:107BB000FCCF3092C6008091C00085FFFCCFB09210
:107BC000C60088CF0E94763C863808F4BDCF0E945C
:107BD000763C0E94F33C7ECF0E94763C803809F4CC
:107BE0009CC0813809F40BC1823809F43CC1883942
:107BF00009F48FC080E00E94C73C6CCF84E10E94F2
:107C0000BD3C0E94F33C66CF85E00E94BD3C0E94D3
:107C1000F33C60CF0E94763C809306010E94763C44
:107C2000809307010E94F33C55CF0E94763C80333D
:107C300009F41DC183E00E94BD3C80E00E94C73C66
:107C400049CF0E94763C809309020E94763C809343
:107C5000080280910C028E7F80930C020E94763C79
:107C6000853409F415C18091080290910902892B8D
:107C700089F000E010E00E94763CF801E85FFE4FDA
:107C800080830F5F1F4F80910802909109020817AF
:107C9000190788F30E94763C803209F045CF809125
:107CA0000C0280FF01C16091060170910701660F0F
:107CB000771F7093070160930601A0910802B091AD
:107CC00009021097C9F0E8E0F1E09B01AD014E0F09
:107CD0005F1FF999FECF32BD21BD819180BDFA9A17
:107CE000F99A2F5F3F4FE417F50799F76A0F7B1F4B
:107CF00070930701609306018091C00085FFFCCF5F
:107D0000F092C6008091C00085FFFCCFB092C60003
:107D1000E1CE83E00E94C73CDDCE82E00E94C73CFA
:107D2000D9CE0E94763C809309020E94763C8093D3
:107D300008028091060190910701880F991F909386
:107D40000701809306010E94763C853409F4A6C0A1
:107D500080910C028E7F80930C020E94763C8032D0
:107D600009F0B8CE8091C00085FFFCCFF092C6002C
:107D7000609108027091090261157105B9F140E046
:107D800050E080910C02A82FA170B82FB27011C0E2
:107D9000BB2309F45CC0E0910601F0910701319624
:107DA000F0930701E09306014F5F5F4F46175707B7
:107DB000E8F4AA2369F3F999FECF209106013091E6
:107DC000070132BD21BDF89A90B58091C00085FFB2
:107DD000FCCF9093C6002F5F3F4F30930701209355
:107DE00006014F5F5F4F4617570718F38091C00099
:107DF00085FDE5CE8091C00085FFF8CFE0CE81E023
:107E00000E94C73C67CE0E94763C803209F08CCE3F
:107E10008091C00085FFFCCFF092C6008091C00029
:107E200085FFFCCFE092C6008091C00085FFFCCFAB
:107E3000D092C6008091C00085FFFCCFC092C600E2
:107E40008091C00085FFFCCFB092C60043CEE09188
:107E50000601F091070194918091C00085FFFCCF4D
:107E60009093C6009CCF80E10E94C73C33CE0E9415
:107E7000763C0E94763C182F0E94763C112309F430
:107E800083C0113009F484C08FE00E94C73C22CE29
:107E900080910C02816080930C02E5CE80910C02EF
:107EA000816080930C0259CF809107018823880F4D
:107EB000880B8A2180930B02809106019091070123
:107EC000880F991F90930701809306018091080203
:107ED00080FF09C080910802909109020196909359
:107EE000090280930802F894F999FECF1127E091D6
:107EF0000601F0910701C8E0D1E08091080290915D
:107F00000902103091F40091570001700130D9F34B
:107F100003E000935700E89500915700017001308D
:107F2000D9F301E100935700E89509901990009169
:107F3000570001700130D9F301E000935700E89534
:107F40001395103498F011270091570001700130FB
:107F5000D9F305E000935700E895009157000170B0
:107F60000130D9F301E100935700E895329602976A
:107F700009F0C7CF103011F00296E5CF112480919F
:107F8000C00085FFB9CEBCCE8EE10E94C73CA2CD19
:0C7F900085E90E94C73C9ECDF894FFCF0D
:027F9C00800063
:040000030000780081
:00000001FF
