:100000000C9462000C9496030C94BD030C948A002B
:100010000C948A000C948A000C948A000C948A0038
:100020000C948A000C948A000C948A000C948A0028
:100030000C948A000C948A000C948A000C948A0018
:100040000C94E4030C948A000C948A000C948A00AB
:100050000C948A000C948A000C948A000C948A00F8
:100060000C948A000C948A00000000080002010031
:100070000003040700000000000000000102040863
:100080001020408001020408102001020408102002
:10009000040404040404040402020202020203032E
:1000A00003030303000000002300260029000000D2
:1000B0000000250028002B0000000000240027007D
:1000C0002A00E80111241FBECFEFD8E0DEBFCDBF6C
:1000D00011E0A0E0B1E0EAE6FDE002C005900D927B
:1000E000A833B107D9F721E0A8E3B1E001C01D9220
:1000F000AF35B207E1F710E0C4ECD0E004C02297BE
:10010000FE010E94AF06C23CD107C9F70E947B06E0
:100110000C94B3060C94000081E090E090933D01B4
:1001200080933C01089540E050E06CE870E081E08D
:100130000E94760320E042E060E18EE391E00E94BD
:10014000B10260E081E00E94FA0460E082E00E9477
:10015000FA0460E083E00C94FA04CF93DF9340E06C
:1001600060E08EE391E00E94970266E071E08EE32A
:1001700091E00E94D00541E060E08EE391E00E94B2
:10018000970261E171E08EE391E00E94D0058091D9
:100190000001909101018930910511F0892B21F422
:1001A00010923B0110923A0181E00E94690501978B
:1001B00009F400C180913A0190913B01019709F443
:1001C000F9C082E00E946905019709F4FAC08091A4
:1001D0003A0190913B01029709F4F3C080913801F4
:1001E000909139018130910561F0029709F0DBC0EF
:1001F00089E090E09093010180930001C2E0D0E09B
:10020000CCC01092010110920001809100019091E8
:1002100001010A970CF0C7C0C0913C01D0913D018B
:10022000C130D10551F58EE391E00E94900240E08B
:1002300060E08EE391E00E94970269E171E08EE355
:1002400091E00E94D00541E060E08EE391E00E94E1
:10025000970263E271E08EE391E00E94D00568EEC0
:1002600073E080E090E00E94510410923D011092F2
:100270003C01D0933B01C0933A0180913C019091A5
:100280003D01892BD1F48EE391E00E94900240E081
:1002900060E08EE391E00E9497026091000170910E
:1002A00001014AE050E08EE391E00E94720668EEA0
:1002B00073E080E090E00E945104809100019091F1
:1002C00001018930910521F410923B0110923A010D
:1002D0000196909301018093000197CF80913C019A
:1002E00090913D01019751F58EE391E00E949002BB
:1002F00040E060E08EE391E00E94970269E171E0E6
:100300008EE391E00E94D00541E060E08EE391E051
:100310000E94970263E271E08EE391E00E94D005B3
:1003200068EE73E080E090E00E94510410923D017D
:1003300010923C01D0933B01C0933A0180913C0163
:1003400090913D01892BD1F48EE391E00E949002BF
:1003500040E060E08EE391E00E949702609100012E
:10036000709101014AE050E08EE391E00E94720634
:1003700068EE73E080E090E00E94510480910001FB
:1003800090910101009721F410923B0110923A01E3
:100390000197909301018093000180910001909159
:1003A000010197FF9BCF1092390110923801DF9124
:1003B000CF91089581E090E09093390180933801C6
:1003C00000CF82E090E0909339018093380106CF0E
:1003D000CF92EF920F9388E0C82E99E0E92E0AE0C1
:1003E0002BE04CE06DE08EE391E00E944F030F9113
:1003F000EF90CF900895CF93DF93EC0160E08E8172
:100400000E94330581E090E00E948B0461E08E81C0
:100410000E94330581E090E00E948B0460E08E81B1
:100420000E94330584E690E0DF91CF910C948B0419
:10043000EF92FF920F931F93CF93DF938C01C0E055
:10044000D0E0E62EF12CB7010C2E02C07595679511
:100450000A94E2F76170F801EC0FFD1F87810E949A
:1004600033052196C430D10571F7C801DF91CF91D2
:100470001F910F91FF90EF900C94FB01EF92FF9270
:100480000F931F93CF93DF938C01C0E0D0E0E62E53
:10049000F12CB7010C2E02C0759567950A94E2F70E
:1004A0006170F801EC0FFD1F87810E9433052196D2
:1004B000C830D10571F7C801DF91CF911F910F911D
:1004C000FF90EF900C94FB011F93CF93DF93EC010F
:1004D000162F642F8C810E9433058D818F3F19F078
:1004E00060E00E9433058F85612F84FF06C0CE0136
:1004F000DF91CF911F910C943E0270E084E07595DE
:1005000067958A95E1F7CE010E941802612FCE010E
:10051000DF91CF911F910C94180240E00C9464027B
:1005200061E00E948D0280ED97E00C948B044430D2
:1005300008F043E0FC012389421710F04FEF420F0F
:10054000FC01E40FF11D2489260F2068622F0C9412
:100550008D02FC016089262F2460208B6C600C9436
:100560008D020F931F93CF93DF93EC01423018F06D
:100570008F8588608F874B8B1C8A80E48D8B6E8B78
:1005800070E0605C7F4F6F8B222329F0413019F4BB
:100590008F8584608F8761E08C810E94FA048D8151
:1005A0008F3F19F061E00E94FA0461E08E810E94A1
:1005B000FA0400E010E08F8584FF03C088E090E03B
:1005C00002C084E090E00817190754F4FE01E00F20
:1005D000F11F61E087810E94FA040F5F1F4FEBCF8C
:1005E00080E593EC0E948B0460E08C810E943305CF
:1005F00060E08E810E9433058D818F3F19F060E0AD
:100600000E9433056F8564FD1DC063E0CE010E942A
:10061000180284E991E10E948B0463E0CE010E94FC
:10062000180284E991E10E948B0463E0CE010E94EC
:10063000180286E990E00E948B0462E0CE010E94DD
:10064000180216C06062CE010E948D0284E991E119
:100650000E948B046F856062CE010E948D0286E944
:1006600090E00E948B046F856062CE010E948D0233
:100670006F856062CE010E948D0284E0888BCE017E
:100680000E94A902CE010E94900282E0898B66E05E
:10069000CE01DF91CF911F910F910C948D02CF92DB
:1006A000EF920F93FC011382128284E391E0918315
:1006B000808364838FEF8583468327830087E18669
:1006C000C2861386148615861686178620E041E0BA
:1006D00060E1CF010F91EF90CF900C94B10241E017
:1006E0000E94640281E090E0089508958230E8F469
:1006F000E82FF0E0EE0FFF1FEE5FFE4F7183608387
:10070000813041F0809169008C7F842B8093690057
:10071000E89A089580916900440F551F440F551FB2
:10072000837F842B80936900E99A08951F920F922A
:100730000FB60F9211242F933F934F935F936F93B4
:100740007F938F939F93AF93BF93EF93FF93E0912A
:100750000201F09103010995FF91EF91BF91AF91D3
:100760009F918F917F916F915F914F913F912F91C9
:100770000F900FBE0F901F9018951F920F920FB6FB
:100780000F9211242F933F934F935F936F937F9317
:100790008F939F93AF93BF93EF93FF93E0910401E7
:1007A000F09105010995FF91EF91BF91AF919F9154
:1007B0008F917F916F915F914F913F912F910F900A
:1007C0000FBE0F901F9018951F920F920FB60F92A9
:1007D00011242F933F938F939F93AF93BF93809157
:1007E000570190915801A0915901B0915A0130914F
:1007F000560123E0230F2D3720F40196A11DB11DD2
:1008000005C026E8230F0296A11DB11D20935601B5
:100810008093570190935801A0935901B0935A01C6
:1008200080915B0190915C01A0915D01B0915E01AE
:100830000196A11DB11D80935B0190935C01A09373
:100840005D01B0935E01BF91AF919F918F913F91F8
:100850002F910F900FBE0F901F9018953FB7F894EF
:1008600080915B0190915C01A0915D01B0915E016E
:1008700026B5A89B05C02F3F19F00196A11DB11DFB
:100880003FBF6627782F892F9A2F620F711D811D18
:10089000911D42E0660F771F881F991F4A95D1F777
:1008A00008958F929F92AF92BF92CF92DF92EF9274
:1008B000FF926B017C010E942E044B015C01C1146C
:1008C000D104E104F104F1F00E948A060E942E0492
:1008D000681979098A099B09683E73408105910569
:1008E00070F321E0C21AD108E108F10888EE880E01
:1008F00083E0981EA11CB11CC114D104E104F104D1
:1009000029F7DDCFFF90EF90DF90CF90BF90AF90B1
:100910009F908F9008958230910538F0880F991F2D
:10092000880F991F05970197F1F70895789484B57A
:10093000826084BD84B5816084BD85B5826085BDDB
:1009400085B5816085BDEEE6F0E0808181608083C1
:10095000E1E8F0E0108280818260808380818160A4
:100960008083E0E8F0E0808181608083E1EBF0E06B
:10097000808184608083E0EBF0E08081816080830F
:10098000EAE7F0E0808184608083808182608083F8
:100990008081816080838081806880831092C10023
:1009A0000895833081F028F4813099F08230A1F0ED
:1009B00008958730A9F08830B9F08430D1F480915F
:1009C00080008F7D03C0809180008F7780938000AE
:1009D000089584B58F7702C084B58F7D84BD089556
:1009E0008091B0008F7703C08091B0008F7D80939D
:1009F000B0000895CF93DF9390E0FC01E458FF4FDF
:100A00002491FC01E057FF4F8491882349F190E045
:100A1000880F991FFC01E854FF4FA591B4918255AE
:100A20009F4FFC01C591D4919FB7611108C0F89404
:100A30008C91209582238C93888182230AC0623016
:100A400051F4F8948C91322F309583238C938881C4
:100A5000822B888304C0F8948C91822B8C939FBF47
:100A6000DF91CF9108950F931F93CF93DF931F9240
:100A7000CDB7DEB7282F30E0F901E859FF4F849158
:100A8000F901E458FF4F1491F901E057FF4F049129
:100A90000023C9F0882321F069830E94D104698171
:100AA000E02FF0E0EE0FFF1FE255FF4FA591B4914C
:100AB0009FB7F8948C91611103C01095812301C0F8
:100AC000812B8C939FBF0F90DF91CF911F910F913E
:100AD0000895CF93DF93282F30E0F901E859FF4FB5
:100AE0008491F901E458FF4FD491F901E057FF4F89
:100AF000C491CC2391F081110E94D104EC2FF0E03D
:100B0000EE0FFF1FEC55FF4FA591B4912C912D23B3
:100B100081E090E021F480E002C080E090E0DF918D
:100B2000CF910895CF92DF92EF92FF920F931F9390
:100B3000CF93DF937C016A01EB0100E010E00C151C
:100B40001D0571F06991D701ED91FC910190F08143
:100B5000E02DC7010995892B19F00F5F1F4FEFCFCB
:100B6000C801DF91CF911F910F91FF90EF90DF901F
:100B7000CF9008956115710581F0DB010D90002083
:100B8000E9F7AD0141505109461B570BDC01ED91CE
:100B9000FC910280F381E02D099480E090E00895BB
:100BA0000C94BA05DC01ED91FC910190F081E02DEF
:100BB00009948F929F92AF92BF92DF92EF92FF9231
:100BC0000F931F93CF93DF93CDB7DEB7A1970FB6E7
:100BD000F894DEBF0FBECDBF7C01F42FD52ECB0124
:100BE00019A2223008F42AE08E010F5D1F4F822ED9
:100BF000912CA12CB12C6F2F7D2DA50194010E9469
:100C00008B06F22FD32ECA01015011096A3014F459
:100C1000E0E301C0E7E3E60FD801EC93232B242B9C
:100C2000252B49F7B801C7010E94BA05A1960FB656
:100C3000F894DEBF0FBECDBFDF91CF911F910F9112
:100C4000FF90EF90DF90BF90AF909F908F900895AE
:100C5000CF92DF92EF92FF920F931F93CF93DF9388
:100C6000EC016A017B012115310579F4E881F981F4
:100C70000190F081E02D642FDF91CF911F910F91B2
:100C8000FF90EF90DF90CF9009942A303105E9F47E
:100C900077FF1AC06DE20E94D2058C0144275527C8
:100CA000BA014C195D096E097F092AE0CE010E9444
:100CB000D905800F911FDF91CF911F910F91FF9068
:100CC000EF90DF90CF9008952AE0B701A601CE0102
:100CD000DF91CF911F910F91FF90EF90DF90CF9018
:100CE0000C94D9059A01AB01662757FD6095762FC4
:100CF0000C94280608950E9496040E947A060E9489
:100D00009300C0E0D0E00E94AD002097E1F30E9484
:100D10000000F9CF0895A1E21A2EAA1BBB1BFD010A
:100D20000DC0AA1FBB1FEE1FFF1FA217B307E407CA
:100D3000F50720F0A21BB30BE40BF50B661F771F22
:100D4000881F991F1A9469F7609570958095909502
:100D50009B01AC01BD01CF010895EE0FFF1F05906F
:0A0D6000F491E02D0994F894FFCF00
:100D6A00FFFF7503750370756C736520706172619E
:100D7A0000696E69636961720065737461646F20EA
:100D8A00646500696E74657272757063696F6E006E
:080D9A00000000006F03920548
:00000001FF
