:100000000C9462000C948A000C948A000C948A0070
:100010000C948A000C948A000C948A000C948A0038
:100020000C948A000C948A000C948A000C948A0028
:100030000C948A000C948A000C948A000C948A0018
:100040000C947D030C948A000C948A000C948A0012
:100050000C948A000C948A000C948A000C948A00F8
:100060000C948A000C948A000000000024002700F1
:100070002A0000000000250028002B0000000000DE
:1000800023002600290004040404040404040202DA
:100090000202020203030303030301020408102007
:1000A0004080010204081020010204081020000012
:1000B0000008000201000003040700000000000027
:1000C0000000E00411241FBECFEFD8E0DEBFCDBF9B
:1000D00011E0A0E0B1E0E0E5FAE002C005900D9289
:1000E000A034B107D9F721E0A0E4B1E001C01D922E
:1000F000AB36B207E1F710E0C2E6D0E004C02197CA
:10010000FE010E942005C136D107C9F70E94C7032E
:100110000C9426050C940000AF92BF92CF92DF9210
:10012000EF92FF920F931F93CF93DF936C017B01AC
:100130008B01040F151FEB015E01AE18BF08C0173D
:10014000D10759F06991D601ED91FC910190F081B0
:10015000E02DC6010995892B79F7C501DF91CF9173
:100160001F910F91FF90EF90DF90CF90BF90AF90D5
:100170000895833081F028F4813099F08230A9F01D
:1001800008958730A9F08830C9F08430B1F48091A7
:1001900080008F7D03C0809180008F7780938000E6
:1001A000089584B58F7784BD089584B58F7DFBCF86
:1001B0008091B0008F778093B00008958091B00057
:1001C0008F7DF9CFCF93DF93282F30E0F901E255EF
:1001D000FF4F8491F901E656FF4FD491F901EA5798
:1001E000FF4FC491CC23A1F081110E94B900EC2FE4
:1001F000F0E0EE0FFF1FE458FF4FA591B491EC9192
:10020000ED2381E090E009F480E0DF91CF91089543
:1002100080E090E0FACF1F93CF93DF93282F30E058
:10022000F901E255FF4F8491F901E656FF4FD49151
:10023000F901EA57FF4FC491CC23A9F0162F811181
:100240000E94B900EC2FF0E0EE0FFF1FEE58FF4FB9
:10025000A591B4918FB7F894EC91111108C0D09585
:10026000DE23DC938FBFDF91CF911F910895DE2BAA
:10027000F8CFCF93DF9390E0FC01E656FF4F249137
:100280008A579F4FFC0184918823D1F090E0880F1A
:10029000991FFC01E859FF4FA591B491FC01EE585C
:1002A000FF4FC591D49161110EC09FB7F8948C9106
:1002B000E22FE0958E238C932881E223E8839FBF71
:1002C000DF91CF9108958FB7F894EC91E22BEC93E6
:1002D0008FBFF6CF3FB7F8948091410190914201D2
:1002E000A0914301B091440126B5A89B05C02F3FC2
:1002F00019F00196A11DB11D3FBFBA2FA92F982F4C
:100300008827BC01CD01620F711D811D911D42E046
:10031000660F771F881F991F4A95D1F708958F920E
:100320009F92AF92BF92CF92DF92EF92FF920E9484
:100330006A014B015C0188EEC82E83E0D82EE12CC7
:10034000F12C0E946A01681979098A099B09683EA3
:10035000734081059105A8F321E0C21AD108E10894
:10036000F10888EE880E83E0981EA11CB11CC11410
:10037000D104E104F10429F7FF90EF90DF90CF90D2
:10038000BF90AF909F908F900895089590E080E087
:1003900008958F929F92AF92BF920F931F93CF9326
:1003A000DF93CDB7DEB7A1970FB6F894DEBF0FBECF
:1003B000CDBF19A2423008F44AE08E010F5D1F4FF5
:1003C000842E912CB12CA12CA50194010E94FE0435
:1003D000E62FB901CA01EA3044F5E05DD801EE9399
:1003E0008D01232B242B252B79F790E080E01097AB
:1003F00069F0FD0101900020E9F73197AF014A1B38
:100400005B0BBD0183E591E00E948C00A1960FB6C5
:10041000F894DEBF0FBECDBFDF91CF911F910F913A
:10042000BF90AF909F908F900895E95CD7CFFC016B
:1004300001900020E9F73197AF01481B590BBC012F
:1004400083E591E00C948C00CF93DF93EC0160E0A6
:100450008E810E940B0161E08E810E940B0160E0A1
:100460008E810E940B018BE891E00197F1F7DF91FB
:10047000CF910895CF92DF92EF92FF920F931F9347
:10048000CF93DF936C017C0187E0E80EF11CD0E094
:10049000C0E0062F10E0B8010C2E02C075956795DC
:1004A0000A94E2F76170F70181917F010E940B01CC
:1004B0002196C430D10579F7C601DF91CF911F9104
:1004C0000F91FF90EF90DF90CF900C942402CF9289
:1004D000DF92EF92FF920F931F93CF93DF93EC0184
:1004E000F62E642F8C810E940B018D818F3F19F0B5
:1004F00060E00E940B010F2D10E08F8584FF25C066
:100500006E0187E0C80ED11CF12CE12CB8010E2C35
:1005100002C0759567950A94E2F76170F6018191C2
:100520006F010E940B01FFEFEF1AFF0A88E0E81647
:10053000F10461F7CE01DF91CF911F910F91FF90F0
:10054000EF90DF90CF900C942402B80184E0759571
:1005500067958A95E1F7CE010E943A026F2DCE0190
:10056000DF91CF911F910F91FF90EF90DF90CF908F
:100570000C943A0240E0682F83E591E00C94670206
:1005800081E00E94BA028BE39FE10197F1F70895A1
:10059000CF93DF93823029F4909162019860909319
:1005A0006201809366011092670180E48093680184
:1005B00080E18093690180E580936A0161E0809128
:1005C00057010E943901809158018F3F19F061E075
:1005D0000E94390161E0809159010E943901C3E50F
:1005E000D1E09E01235531408091620184FD0BC012
:1005F00084E090E021962817390744F461E08E8169
:100600000E943901EECF88E090E0F4CF8BE39DE0CB
:100610000197F1F760E0809157010E940B0160E0C3
:10062000809159010E940B01809158018F3F19F070
:1006300060E00E940B018091620184FD34C063E0A0
:1006400083E591E00E943A02CBE4D6E4CE01019723
:10065000F1F763E083E591E00E943A022197F1F718
:1006600063E083E591E00E943A0283E592E001971E
:10067000F1F762E083E591E00E943A028091620125
:1006800080620E94BA0284E0809363018CE00E9441
:10069000BA020E94C00282E08093640186E0DF918A
:1006A000CF910C94BA0280620E94BA028BE496E465
:1006B0000197F1F78091620180620E94BA0283E59E
:1006C00092E00197F1F78091620180620E94BA0284
:1006D000D5CF90916601891710F08FEF890FE82F21
:1006E000F0E0ED5AFE4F848980680C94BA0241E034
:1006F0000E94670281E090E008951F920F920FB66A
:100700000F9211242F933F938F939F93AF93BF9397
:100710008091450190914601A0914701B091480117
:100720003091400123E0230F2D3758F50196A11D8C
:10073000B11D209340018093450190934601A09301
:100740004701B09348018091410190914201A091ED
:100750004301B09144010196A11DB11D8093410157
:1007600090934201A0934301B0934401BF91AF9194
:100770009F918F913F912F910F900FBE0F901F90DF
:10078000189526E8230F0296A11DB11DD2CF7894AB
:1007900084B5826084BD84B5816084BD85B5826086
:1007A00085BD85B5816085BD80916E008160809337
:1007B0006E001092810080918100826080938100A0
:1007C00080918100816080938100809180008160B0
:1007D000809380008091B10084608093B10080910B
:1007E000B00081608093B00080917A008460809333
:1007F0007A0080917A00826080937A0080917A00FA
:10080000816080937A0080917A00806880937A007A
:100810001092C10082E00E94C80260E082E00E9463
:10082000390160E081E00E94390161E08DE00E94C1
:10083000390188EE882E83E0982EA12CB12CC0E0DF
:10084000D0E082E00E94E2007C01019759F581E04E
:100850000E94E200892B31F5809151019091520163
:10086000892B01F52FB7F8948091450190914601AD
:10087000A0914701B09148012FBF80934D01909303
:100880004E01A0934F01B09350010E94C00280E03E
:100890000E9469038CE091E00E941702F0925201DD
:1008A000E092510181E00E94E200019709F082C0CC
:1008B0008091510190915201019709F07BC08FB74F
:1008C000F894C0904501D0904601E0904701F09027
:1008D00048018FBF80914D0190914E01A0914F0131
:1008E000B0915001C81AD90AEA0AFB0AC0924D0118
:1008F000D0924E01E0924F01F0925001C701B60133
:10090000A50194010E94FE042093490130934A01FD
:1009100040934B0150934C0180E4C8168FE1D806F8
:10092000E104F104C8F00E94C00280E00E94690363
:1009300083E291E00E9417020E948F0181E00E94F1
:1009400069036091490170914A0180914B01909136
:100950004C014AE00E94C90180914D0190914E01E5
:10096000A0914F01B091500181349F41A105B10583
:10097000E8F40E94C00280E00E94690382E391E0F3
:100980000E94170261E08DE00E940B010E948F011E
:1009900081E00E9469036091490170914A01809150
:1009A0004B0190914C014AE00E94C9011092520102
:1009B00010925101209709F444CF0E94000041CFCA
:1009C000E3E5F1E01382128284E091E09183808379
:1009D0008CE084838FEF85838BE086838AE0878336
:1009E00089E0808788E0818787E082871386148684
:1009F00015861686178681E00C94C802A1E21A2E8D
:100A0000AA1BBB1BFD010DC0AA1FBB1FEE1FFF1FB2
:100A1000A217B307E407F50720F0A21BB30BE40B02
:100A2000F50B661F771F881F991F1A9469F7609549
:100A30007095809590959B01AC01BD01CF01089503
:100A4000EE0FFF1F0590F491E02D0994F894FFCF6D
:100A50000000000077038C00C601C501746F6D6152
:100A60006E646F2076656C6F636964616420617584
:100A7000746F0076656C2E207065726D69746964A0
:100A80006100536520746F6D6F20666F746F000096
:00000001FF
