:100000000C945D000C94A5030C94CC030C94850017
:100010000C9485000C9485000C9485000C9485004C
:100020000C9485000C9485000C9485000C9485003C
:100030000C9485000C9485000C9485000C9485002C
:100040000C94F3030C9485000C9485000C948500AB
:100050000C9485000C9485000C9485000C9485000C
:100060000C9485000C94850000000008000201003B
:100070000003040700000000000000000102040863
:100080001020408001020408102001020408102002
:10009000040404040404040402020202020203032E
:1000A0000303030300000000250028002B000000CC
:1000B0000000240027002A00F70111241FBECFEF03
:1000C000D8E0DEBFCDBF11E0A0E0B1E0E8ECF3E1A5
:1000D00002C005900D92A835B107D9F721E0A8E537
:1000E000B1E001C01D92A738B207E1F710E0CAEBFA
:1000F000D0E004C02297FE010E94DE09C83BD10770
:10010000C9F70E9463070C94E2090C94000081E097
:1001100090E09093590180935801089543E050E096
:1001200067E870E080E00E94850320E042E060E143
:1001300086E691E00E94C00261E081E00C94260511
:10014000CF92DF92EF92FF921F93CF93DF938EE0D7
:100150000E94E004909365018093640115E0189F6C
:100160009001199F300D1124CFEFD3E0C901BE01DA
:100170000E949209882777FD8095982F0E94770822
:1001800060936001709361018093620190936301B9
:100190008FE00E94E00490935F0180935E01189FBE
:1001A0009001199F300D1124C901BE010E949209CE
:1001B000882777FD8095982F0E9477086B017C0136
:1001C00060935A0170935B0180935C0190935D0191
:1001D00020E030E040E850E46091600170916101FE
:1001E00080916201909163010E94D80787FD0AC047
:1001F00020E030E040E850E4C701B6010E94D80793
:1002000087FF81C08091580190915901892B09F095
:100210004EC086E691E00E949F0240E060E086E6E4
:1002200091E00E94A60265E071E086E691E00E94FE
:10023000D30540E069E086E691E00E94A602409185
:10024000600150916101609162017091630122E04F
:1002500030E086E691E00E94600741E060E086E6DB
:1002600091E00E94A60260E171E086E691E00E94C2
:10027000D30541E069E086E691E00E94A602409144
:100280005A0150915B0160915C0170915D0122E027
:1002900030E086E691E00E94600760E081E00E9425
:1002A0005F0568EC70E080E090E00E94600480915F
:1002B000580190915901019731F586E691E00E942D
:1002C0009F0240E060E086E691E00E94A6026BE1BA
:1002D00071E086E691E00E94D30541E060E086E6A9
:1002E00091E00E94A60265E271E086E691E00E943C
:1002F000D30568EE73E080E090E00E946004109205
:1003000059011092580120E030E040E850E460913B
:1003100060017091610180916201909163010E947E
:10032000270987FD5CC020E030E040E850E46091A0
:100330005A0170915B0180915C0190915D010E9476
:10034000270987FD4CC08091580190915901892B54
:10035000D1F486E691E00E949F0240E061E086E6EB
:1003600091E00E94A60260E371E086E691E00E94BF
:10037000D30561E081E00E945F0568EC70E080E0F9
:1003800090E00E946004809158019091590101977A
:1003900031F586E691E00E949F0240E060E086E64B
:1003A00091E00E94A6026BE171E086E691E00E9476
:1003B000D30541E060E086E691E00E94A60265E296
:1003C00071E086E691E00E94D30568EE73E080E07C
:1003D00090E00E9460041092590110925801DF9140
:1003E000CF911F91FF90EF90DF90CF900895CF9223
:1003F000EF920F9388E0C82E99E0E92E0AE02BE0F7
:100400004CE06DE086E691E00E945E030F91EF9074
:10041000CF900895CF93DF93EC0160E08E810E942E
:100420005F0581E090E00E949A0461E08E810E9465
:100430005F0581E090E00E949A0460E08E810E9456
:100440005F0584E690E0DF91CF910C949A04EF92DF
:10045000FF920F931F93CF93DF938C01C0E0D0E006
:10046000E62EF12CB7010C2E02C0759567950A9403
:10047000E2F76170F801EC0FFD1F87810E945F05B4
:100480002196C430D10571F7C801DF91CF911F913A
:100490000F91FF90EF900C940A02EF92FF920F934E
:1004A0001F93CF93DF938C01C0E0D0E0E62EF12CB8
:1004B000B7010C2E02C0759567950A94E2F761703A
:1004C000F801EC0FFD1F87810E945F052196C8305F
:1004D000D10571F7C801DF91CF911F910F91FF9066
:1004E000EF900C940A021F93CF93DF93EC01162F29
:1004F000642F8C810E945F058D818F3F19F060E031
:100500000E945F058F85612F84FF06C0CE01DF91B9
:10051000CF911F910C944D0270E084E07595679522
:100520008A95E1F7CE010E942702612FCE01DF916B
:10053000CF911F910C94270240E00C94730261E06C
:100540000E949C0280ED97E00C949A04443008F0DD
:1005500043E0FC012389421710F04FEF420FFC01EA
:10056000E40FF11D2489260F2068622F0C949C0251
:10057000FC016089262F2460208B6C600C949C0207
:100580000F931F93CF93DF93EC01423018F08F85C8
:1005900088608F874B8B1C8A80E48D8B6E8B70E01C
:1005A000605C7F4F6F8B222329F0413019F48F85D7
:1005B00084608F8761E08C810E9426058D818F3F4A
:1005C00019F061E00E94260561E08E810E942605F7
:1005D00000E010E08F8584FF03C088E090E002C057
:1005E00084E090E00817190754F4FE01E00FF11FB2
:1005F00061E087810E9426050F5F1F4FEBCF80E5EA
:1006000093EC0E949A0460E08C810E945F0560E098
:100610008E810E945F058D818F3F19F060E00E94FE
:100620005F056F8564FD1DC063E0CE010E94270257
:1006300084E991E10E949A0463E0CE010E942702BE
:1006400084E991E10E949A0463E0CE010E942702AE
:1006500086E990E00E949A0462E0CE010E9427029F
:1006600016C06062CE010E949C0284E991E10E9462
:100670009A046F856062CE010E949C0286E990E038
:100680000E949A046F856062CE010E949C026F8571
:100690006062CE010E949C0284E0888BCE010E94A1
:1006A000B802CE010E949F0282E0898B66E0CE01F3
:1006B000DF91CF911F910F910C949C02CF92EF92FA
:1006C0000F93FC011382128283E491E09183808373
:1006D00064838FEF8583468327830087E186C28604
:1006E0001386148615861686178620E041E060E1A1
:1006F000CF010F91EF90CF900C94C00241E00E9487
:10070000730281E090E0089508958230E8F4E82FC4
:10071000F0E0EE0FFF1FE050FF4F718360838130E8
:1007200041F0809169008C7F842B80936900E89A66
:10073000089580916900440F551F440F551F837F12
:10074000842B80936900E99A08951F920F920FB647
:100750000F9211242F933F934F935F936F937F9347
:100760008F939F93AF93BF93EF93FF93E09100011B
:10077000F09101010995FF91EF91BF91AF919F9188
:100780008F917F916F915F914F913F912F910F903A
:100790000FBE0F901F9018951F920F920FB60F92D9
:1007A00011242F933F934F935F936F937F938F9376
:1007B0009F93AF93BF93EF93FF93E0910201F0916A
:1007C00003010995FF91EF91BF91AF919F918F9197
:1007D0007F916F915F914F913F912F910F900FBE3D
:1007E0000F901F9018951F920F920FB60F92112421
:1007F0002F933F938F939F93AF93BF9380917F01EC
:1008000090918001A0918101B091820130917E018F
:1008100023E0230F2D3720F40196A11DB11D05C043
:1008200026E8230F0296A11DB11D20937E0180931F
:100830007F0190938001A0938101B0938201809108
:10084000830190918401A0918501B0918601019668
:10085000A11DB11D8093830190938401A093850114
:10086000B0938601BF91AF919F918F913F912F914E
:100870000F900FBE0F901F9018953FB7F89480917E
:10088000830190918401A0918501B091860126B5E4
:10089000A89B05C02F3F19F00196A11DB11D3FBFB8
:1008A0006627782F892F9A2F620F711D811D911D48
:1008B00042E0660F771F881F991F4A95D1F7089568
:1008C0008F929F92AF92BF92CF92DF92EF92FF9260
:1008D0006B017C010E943D044B015C01C114D104F9
:1008E000E104F104F1F00E9472070E943D046819CE
:1008F00079098A099B09683E73408105910570F367
:1009000021E0C21AD108E108F10888EE880E83E0E0
:10091000981EA11CB11CC114D104E104F10429F7F3
:10092000DDCFFF90EF90DF90CF90BF90AF909F9082
:100930008F9008958230910538F0880F991F880FA5
:10094000991F05970197F1F70895789484B582600F
:1009500084BD84B5816084BD85B5826085BD85B563
:10096000816085BDEEE6F0E0808181608083E1E812
:10097000F0E010828081826080838081816080834A
:10098000E0E8F0E0808181608083E1EBF0E080814D
:1009900084608083E0EBF0E0808181608083EAE71F
:1009A000F0E08081846080838081826080838081A8
:1009B000816080838081806880831092C100089567
:1009C0008E3008F08E5087702091040190E4299FAA
:1009D00090011124822B80937C0080917A008064A6
:1009E00080937A0080917A0086FDFCCF8091780018
:1009F0002091790090E0922B0895833081F028F4C3
:100A0000813099F08230A1F008958730A9F08830C4
:100A1000B9F08430D1F4809180008F7D03C0809143
:100A200080008F7780938000089584B58F7702C00F
:100A300084B58F7D84BD08958091B0008F7703C009
:100A40008091B0008F7D8093B0000895CF93DF93A5
:100A500090E0FC01E458FF4F2491FC01E057FF4F68
:100A60008491882349F190E0880F991FFC01E25599
:100A7000FF4FA591B4918C559F4FFC01C591D49126
:100A80009FB7611108C0F8948C91209582238C93B4
:100A9000888182230AC0623051F4F8948C91322FFD
:100AA000309583238C938881822B888304C0F894AB
:100AB0008C91822B8C939FBFDF91CF9108950F93E0
:100AC0001F93CF93DF931F92CDB7DEB7282F30E06F
:100AD000F901E859FF4F8491F901E458FF4F14914F
:100AE000F901E057FF4F04910023C9F0882321F05A
:100AF00069830E94FD046981E02FF0E0EE0FFF1F83
:100B0000EC55FF4FA591B4919FB7F8948C9161116A
:100B100003C01095812301C0812B8C939FBF0F9040
:100B2000DF91CF911F910F910895CF92DF92EF92B5
:100B3000FF920F931F93CF93DF937C016A01EB0128
:100B400000E010E00C151D0571F06991D701ED91E1
:100B5000FC910190F081E02DC7010995892B19F0D6
:100B60000F5F1F4FEFCFC801DF91CF911F910F9102
:100B7000FF90EF90DF90CF9008956115710581F09F
:100B8000DB010D900020E9F7AD0141505109461BF2
:100B9000570BDC01ED91FC910280F381E02D09946B
:100BA00080E090E008950C94BD05DC01ED91FC918E
:100BB0000190F081E02D09948F929F92AF92BF92A5
:100BC000DF92EF92FF920F931F93CF93DF93CDB7F6
:100BD000DEB7A1970FB6F894DEBF0FBECDBF7C0184
:100BE000F42FD52ECB0119A2223008F42AE08E0171
:100BF0000F5D1F4F822E912CA12CB12C6F2F7D2DBC
:100C0000A50194010E94A609F22FD32ECA0101501A
:100C100011096A3014F4E0E301C0E7E3E60FD801FC
:100C2000EC93232B242B252B49F7B801C7010E94F5
:100C3000BD05A1960FB6F894DEBF0FBECDBFDF9104
:100C4000CF911F910F91FF90EF90DF90BF90AF90E9
:100C50009F908F900895CF92DF92EF92FF920F9323
:100C60001F93CF93DF93EC016A017B0121153105BE
:100C700079F4E881F9810190F081E02D642FDF9112
:100C8000CF911F910F91FF90EF90DF90CF9009943B
:100C90002A303105E9F477FF1AC06DE20E94D505CC
:100CA0008C0144275527BA014C195D096E097F094B
:100CB0002AE0CE010E94DC05800F911FDF91CF91C9
:100CC0001F910F91FF90EF90DF90CF9008952AE051
:100CD000B701A601CE01DF91CF911F910F91FF9037
:100CE000EF90DF90CF900C94DC054F925F926F9263
:100CF0007F928F929F92AF92BF92CF92DF92EF92AC
:100D0000FF920F931F93CF93DF93EC016A017B0156
:100D1000B22E9A01AB01C701B6010E948E09882349
:100D200019F06AE471E027C026013701E89477F8EA
:100D30002FEF3FEF4FE75FE7C301B2010E948E093B
:100D400081110DC02FEF3FEF4FE75FE7C301B20105
:100D50000E94D80718161CF46EE471E00CC02FEF47
:100D60003FEF4FE75FE4C701B6010E94270918165D
:100D7000ACF462E571E0CE01DF91CF911F910F914C
:100D8000FF90EF90DF90CF90BF90AF909F908F90AB
:100D90007F906F905F904F900C94BD052FEF3FEFC9
:100DA0004FE75FECC701B6010E94D80787FDE1CF8E
:100DB00020E030E0A901C701B6010E94D80787FFF3
:100DC0000AC06DE2CE010E94D5058C01F7FAF094BD
:100DD000F7F8F09402C000E010E0A12C60E070E0B1
:100DE00080E09FE3AB1441F020E030E040E251E4CA
:100DF0000E94DC07A394F6CF9B01AC01C701B601AA
:100E00000E9474076B017C010E9449082B013C0180
:100E10000E9475089B01AC01C701B6010E947307CF
:100E20006B017C012AE0B301A201CE010E94DC0526
:100E3000080F191FBB2039F066E571E0CE010E9452
:100E4000BD05080F191F7B2C772041F120E030E011
:100E500040E251E4C701B6010E942B096B017C01FD
:100E60000E9444084B01AA2497FCA094BA2C2AE0C3
:100E700030E0B501A401CE010E942B06080F191F16
:100E8000C501B4010E9477089B01AC01C701B601FE
:100E90000E9473076B017C017A94D6CFC801DF9161
:100EA000CF911F910F91FF90EF90DF90CF90BF9067
:100EB000AF909F908F907F906F905F904F9008952C
:100EC0000C94750608950E94A5040E9462070E9472
:100ED0008E00C0E0D0E00E94A0002097E1F30E94C5
:100EE0000000F9CF08955058BB27AA270ED075C12E
:100EF00066D130F06BD120F031F49F3F11F41EF435
:100F00005BC10EF4E095E7FB51C1E92F77D180F387
:100F1000BA17620773078407950718F071F49EF5F6
:100F20008FC10EF4E0950B2EBA2FA02D0B01B90145
:100F300090010C01CA01A0011124FF27591B99F04F
:100F4000593F50F4503E68F11A16F040A22F232F5B
:100F5000342F4427585FF3CF469537952795A795AB
:100F6000F0405395C9F77EF41F16BA0B620B730B52
:100F7000840BBAF09150A1F0FF0FBB1F661F771FC3
:100F8000881FC2F70EC0BA0F621F731F841F48F478
:100F9000879577956795B795F7959E3F08F0B3CFFE
:100FA0009395880F08F09927EE0F979587950895E8
:100FB000D9D008F481E008950CD00FC107D140F0DA
:100FC000FED030F021F45F3F19F0F0C0511139C16B
:100FD000F3C014D198F39923C9F35523B1F3951BAA
:100FE000550BBB27AA2762177307840738F09F5F4A
:100FF0005F4F220F331F441FAA1FA9F333D00E2EB9
:101000003AF0E0E830D091505040E695001CCAF725
:1010100029D0FE2F27D0660F771F881FBB1F2617EA
:1010200037074807AB07B0E809F0BB0B802DBF01BD
:10103000FF2793585F4F2AF09E3F510568F0B6C0D6
:1010400000C15F3FECF3983EDCF38695779567959A
:10105000B795F7959F5FC9F7880F911D969587956E
:1010600097F90895E1E0660F771F881FBB1F62178D
:1010700073078407BA0720F0621B730B840BBA0B4B
:10108000EE1F88F7E095089504D06894B111D9C097
:101090000895BCD088F09F5790F0B92F9927B75189
:1010A000A0F0D1F0660F771F881F991F1AF0BA952C
:1010B000C9F712C0B13081F0C3D0B1E00895C0C00B
:1010C000672F782F8827B85F39F0B93FCCF3869522
:1010D00077956795B395D9F73EF49095809570957F
:1010E00061957F4F8F4F9F4F0895E89409C097FBFC
:1010F0003EF490958095709561957F4F8F4F9F4FEF
:101100009923A9F0F92F96E9BB279395F695879532
:1011100077956795B795F111F8CFFAF4BB0F11F4F5
:1011200060FF1BC06F5F7F4F8F4F9F4F16C088239C
:1011300011F096E911C0772321F09EE8872F762FD2
:1011400005C0662371F096E8862F70E060E02AF013
:101150009A95660F771F881FDAF7880F96958795FF
:1011600097F90895990F0008550FAA0BE0E8FEEFD4
:1011700016161706E807F907C0F012161306E4075B
:10118000F50798F0621B730B840B950B39F40A2654
:1011900061F0232B242B252B21F408950A2609F432
:1011A000A140A6958FEF811D811D089597F99F6736
:1011B00080E870E060E008959FEF80EC08950024DF
:1011C0000A941616170618060906089500240A94AC
:1011D00012161306140605060895092E0394000C32
:1011E00011F4882352F0BB0F40F4BF2B11F460FFC1
:1011F00004C06F5F7F4F8F4F9F4F089557FD9058EA
:10120000440F551F59F05F3F71F04795880F97FBCA
:10121000991F61F09F3F79F0879508951216130684
:101220001406551FF2CF4695F1DF08C016161706B3
:101230001806991FF1CF86957105610508940895E8
:10124000E894BB2766277727CB0197F908958ADFB3
:1012500008F48FEF08950BD0C0CFB1DF28F0B6DFD0
:1012600018F0952309F0A2CFA7CF1124EACFC6DF4B
:10127000A0F3959FD1F3950F50E0551F629FF001A9
:10128000729FBB27F00DB11D639FAA27F00DB11D02
:10129000AA1F649F6627B00DA11D661F829F22278B
:1012A000B00DA11D621F739FB00DA11D621F839F12
:1012B000A00D611D221F749F3327A00D611D231FE8
:1012C000849F600D211D822F762F6A2F11249F5736
:1012D00050408AF0E1F088234AF0EE0FFF1FBB1F59
:1012E000661F771F881F91505040A9F79E3F5105F8
:1012F00070F05CCFA6CF5F3FECF3983EDCF38695B1
:1013000077956795B795F795E7959F5FC1F7FE2BA2
:10131000880F911D9695879597F9089523DF880B7F
:10132000990B089597FB072E16F4009407D077FDCC
:1013300009D00E94C80907FC05D03EF4909581951C
:101340009F4F0895709561957F4F0895A1E21A2EE1
:10135000AA1BBB1BFD010DC0AA1FBB1FEE1FFF1F59
:10136000A217B307E407F50720F0A21BB30BE40BA9
:10137000F50B661F771F881F991F1A9469F76095F0
:101380007095809590959B01AC01BD01CF010895AA
:10139000AA1BBB1B51E107C0AA1FBB1FA617B7079B
:1013A00010F0A61BB70B881F991F5A95A9F78095B7
:1013B0009095BC01CD010895EE0FFF1F0590F491AB
:0813C000E02D0994F894FFCF21
:1013C800840384030154656E73696F6E313A20009B
:1013D80054656E73696F6E323A20005061726164B1
:1013E8006120646500656D657267656E636961009B
:1013F800524945474F20414354495641444F000004
:101408000000007E0395050D0A006E616E00696E8E
:0814180066006F7666002E00ED
:107800000C94343C0C94513C0C94513C0C94513CE1
:107810000C94513C0C94513C0C94513C0C94513CB4
:107820000C94513C0C94513C0C94513C0C94513CA4
:107830000C94513C0C94513C0C94513C0C94513C94
:107840000C94513C0C94513C0C94513C0C94513C84
:107850000C94513C0C94513C0C94513C0C94513C74
:107860000C94513C0C94513C11241FBECFEFD8E036
:10787000DEBFCDBF11E0A0E0B1E0ECE9FFE702C060
:1078800005900D92A230B107D9F712E0A2E0B1E065
:1078900001C01D92AD30B107E1F70E942D3D0C945F
:1078A000CC3F0C94003C982F959595959595959582
:1078B000905D8F708A307CF0282F295A8091C0000B
:1078C00085FFFCCF9093C6008091C00085FFFCCF60
:1078D0002093C6000895282F205DF0CF982F809127
:1078E000C00085FFFCCF9093C6000895EF92FF92F1
:1078F0000F931F93EE24FF2487018091C00087FD22
:1079000017C00894E11CF11C011D111D81E4E8164B
:1079100082E4F8068FE0080780E0180770F3E09132
:107920000401F091050109958091C00087FFE9CF1E
:107930008091C6001F910F91FF90EF9008950E94D3
:10794000763C982F8091C00085FFFCCF9093C600B5
:1079500091362CF490330CF09053892F089597555D
:10796000892F08951F930E949F3C182F0E949F3CCF
:107970001295107F810F1F9108951F93182F882350
:1079800021F00E94763C1150E1F71F9108951F935A
:10799000182F0E94763C803249F0809103018F5F5E
:1079A000809303018530C1F01F9108958091C0003C
:1079B00085FFFCCF84E18093C6008091C00085FFE5
:1079C000FCCF1093C6008091C00085FFFCCF80E102
:1079D0008093C6001F910895E0910401F091050184
:1079E00009951F9108950E94763C803241F0809164
:1079F00003018F5F80930301853081F008958091AA
:107A0000C00085FFFCCF84E18093C6008091C00058
:107A100085FFFCCF80E18093C6000895E0910401CA
:107A2000F09105010995089540E951E08823A1F0FE
:107A30002D9A28EE33E0FA013197F1F721503040CA
:107A4000D1F72D9828EE33E0FA013197F1F7215064
:107A50003040D1F7815061F708953F924F925F9285
:107A60006F927F928F929F92AF92BF92CF92DF924E
:107A7000EF92FF920F931F93CF93DF93000080E16B
:107A80008093C4001092C50088E18093C10086E015
:107A90008093C2005098589A259A81E00E94143D24
:107AA00024E1F22E9EE1E92E85E9D82E0FE0C02ECA
:107AB00010E1B12EAA24A394B1E49B2EA6E58A2E50
:107AC000F2E57F2EE0E26E2E79E4572E63E5462E36
:107AD00050E5352E0E94763C8033B1F18133B9F107
:107AE000803409F46FC0813409F476C0823409F41B
:107AF00085C0853409F488C0803531F1823521F1A3
:107B0000813511F1853509F485C0863509F48DC0BC
:107B1000843609F496C0843709F403C1853709F423
:107B200072C1863709F466C0809103018F5F80932C
:107B30000301853079F6E0910401F0910501099582
:107B40000E94763C803351F60E94F33CC3CF0E94E2
:107B5000763C803249F78091C00085FFFCCFF092DF
:107B6000C6008091C00085FFFCCF9092C600809136
:107B7000C00085FFFCCF8092C6008091C00085FFC9
:107B8000FCCF7092C6008091C00085FFFCCF609250
:107B9000C6008091C00085FFFCCF5092C600809146
:107BA000C00085FFFCCF4092C6008091C00085FFD9
:107BB000FCCF3092C6008091C00085FFFCCFB09210
:107BC000C60088CF0E94763C863808F4BDCF0E945C
:107BD000763C0E94F33C7ECF0E94763C803809F4CC
:107BE0009CC0813809F40BC1823809F43CC1883942
:107BF00009F48FC080E00E94C73C6CCF84E10E94F2
:107C0000BD3C0E94F33C66CF85E00E94BD3C0E94D3
:107C1000F33C60CF0E94763C809306010E94763C44
:107C2000809307010E94F33C55CF0E94763C80333D
:107C300009F41DC183E00E94BD3C80E00E94C73C66
:107C400049CF0E94763C809309020E94763C809343
:107C5000080280910C028E7F80930C020E94763C79
:107C6000853409F415C18091080290910902892B8D
:107C700089F000E010E00E94763CF801E85FFE4FDA
:107C800080830F5F1F4F80910802909109020817AF
:107C9000190788F30E94763C803209F045CF809125
:107CA0000C0280FF01C16091060170910701660F0F
:107CB000771F7093070160930601A0910802B091AD
:107CC00009021097C9F0E8E0F1E09B01AD014E0F09
:107CD0005F1FF999FECF32BD21BD819180BDFA9A17
:107CE000F99A2F5F3F4FE417F50799F76A0F7B1F4B
:107CF00070930701609306018091C00085FFFCCF5F
:107D0000F092C6008091C00085FFFCCFB092C60003
:107D1000E1CE83E00E94C73CDDCE82E00E94C73CFA
:107D2000D9CE0E94763C809309020E94763C8093D3
:107D300008028091060190910701880F991F909386
:107D40000701809306010E94763C853409F4A6C0A1
:107D500080910C028E7F80930C020E94763C8032D0
:107D600009F0B8CE8091C00085FFFCCFF092C6002C
:107D7000609108027091090261157105B9F140E046
:107D800050E080910C02A82FA170B82FB27011C0E2
:107D9000BB2309F45CC0E0910601F0910701319624
:107DA000F0930701E09306014F5F5F4F46175707B7
:107DB000E8F4AA2369F3F999FECF209106013091E6
:107DC000070132BD21BDF89A90B58091C00085FFB2
:107DD000FCCF9093C6002F5F3F4F30930701209355
:107DE00006014F5F5F4F4617570718F38091C00099
:107DF00085FDE5CE8091C00085FFF8CFE0CE81E023
:107E00000E94C73C67CE0E94763C803209F08CCE3F
:107E10008091C00085FFFCCFF092C6008091C00029
:107E200085FFFCCFE092C6008091C00085FFFCCFAB
:107E3000D092C6008091C00085FFFCCFC092C600E2
:107E40008091C00085FFFCCFB092C60043CEE09188
:107E50000601F091070194918091C00085FFFCCF4D
:107E60009093C6009CCF80E10E94C73C33CE0E9415
:107E7000763C0E94763C182F0E94763C112309F430
:107E800083C0113009F484C08FE00E94C73C22CE29
:107E900080910C02816080930C02E5CE80910C02EF
:107EA000816080930C0259CF809107018823880F4D
:107EB000880B8A2180930B02809106019091070123
:107EC000880F991F90930701809306018091080203
:107ED00080FF09C080910802909109020196909359
:107EE000090280930802F894F999FECF1127E091D6
:107EF0000601F0910701C8E0D1E08091080290915D
:107F00000902103091F40091570001700130D9F34B
:107F100003E000935700E89500915700017001308D
:107F2000D9F301E100935700E89509901990009169
:107F3000570001700130D9F301E000935700E89534
:107F40001395103498F011270091570001700130FB
:107F5000D9F305E000935700E895009157000170B0
:107F60000130D9F301E100935700E895329602976A
:107F700009F0C7CF103011F00296E5CF112480919F
:107F8000C00085FFB9CEBCCE8EE10E94C73CA2CD19
:0C7F900085E90E94C73C9ECDF894FFCF0D
:027F9C00800063
:040000030000780081
:00000001FF
