:020000040000FA
:100000000C945D000C9439030C9412030C9485003D
:100010000C9485000C9485000C9485000C9485004C
:100020000C9485000C9485000C9485000C9485003C
:100030000C9485000C9485000C9485000C9485002C
:100040000C94C8020C9485000C9485000C948500D7
:100050000C9485000C9485000C9485000C9485000C
:100060000C9485000C9485000000000024002700FB
:100070002A0000000000250028002B0004040404CE
:100080000404040402020202020203030303030342
:10009000010204081020408001020408102001021F
:1000A00004081020000000080002010000030407FB
:1000B0000000000000000000200411241FBECFEF4C
:1000C000D8E0DEBFCDBF11E0A0E0B1E0ECE8F8E0A1
:1000D00002C005900D92A832B107D9F721E0A8E23D
:1000E000B1E001C01D92AB34B207E1F710E0CDE5FD
:1000F000D0E004C02197FE010E943E04CC35D10718
:10010000C9F70E9460030C9444040C94000081E041
:1001100090E090933201809331010895AF92BF92A5
:10012000CF92DF92EF92FF920F931F93CF93DF93C3
:100130006C017B018B01040F151FEB015E01AE18F2
:10014000BF08C017D10759F06991D601ED91FC9114
:100150000190F081E02DC6010995892B79F7C50141
:10016000DF91CF911F910F91FF90EF90DF90CF9093
:10017000BF90AF90089590E0FC01EC55FF4F2491A3
:10018000FC01E057FF4F3491FC01E458FF4FE4912C
:10019000EE23C9F0222339F0233001F1A8F42130F5
:1001A00019F1223029F1F0E0EE0FFF1FEE58FF4F5A
:1001B000A591B4918FB7F894EC91611126C0309558
:1001C0003E233C938FBF08952730A9F02830C9F013
:1001D000243049F7809180008F7D03C0809180009A
:1001E0008F7780938000DFCF84B58F7784BDDBCF9E
:1001F00084B58F7DFBCF8091B0008F778093B00066
:10020000D2CF8091B0008F7DF9CF3E2BDACFCF9344
:10021000DF9390E0FC01E057FF4F249184589F4FFB
:10022000FC0184918823D1F090E0880F991FFC0194
:10023000E859FF4FA591B491FC01EE58FF4FC591CD
:10024000D49161110EC09FB7F8948C91E22FE09584
:100250008E238C932881E223E8839FBFDF91CF9187
:1002600008958FB7F894EC91E22BEC938FBFF6CF03
:100270003FB7F89480912D0190912E01A0912F010C
:10028000B091300126B5A89B05C02F3F19F001960B
:10029000A11DB11D3FBFBA2FA92F982F8827BC01E0
:1002A000CD01620F711D811D911D42E0660F771F08
:1002B000881F991F4A95D1F708950895089590E0F1
:1002C00080E00895FC0101900020E9F73197AF012B
:1002D000481B590BBC0183E391E00C948E00CF9333
:1002E000DF93EC0160E08E810E94BB0061E08E81B3
:1002F0000E94BB0060E08E810E94BB008BE891E011
:100300000197F1F7DF91CF910895CF92DF92EF92AD
:10031000FF920F931F93CF93DF936C017C0187E0D3
:10032000E80EF11CD0E0C0E0062F10E0B8010C2E62
:1003300002C0759567950A94E2F76170F7018191A3
:100340007F010E94BB002196C430D10579F7C60118
:10035000DF91CF911F910F91FF90EF90DF90CF90A1
:100360000C946F01CF92DF92EF92FF920F931F9345
:10037000CF93DF93EC01F62E642F8C810E94BB009B
:100380008D818F3F19F060E00E94BB000F2D10E0BF
:100390008F8584FF25C06E0187E0C80ED11CF12C2B
:1003A000E12CB8010E2C02C0759567950A94E2F70E
:1003B0006170F60181916F010E94BB00FFEFEF1A9F
:1003C000FF0A88E0E816F10461F7CE01DF91CF91D2
:1003D0001F910F91FF90EF90DF90CF900C946F01E1
:1003E000B80184E0759567958A95E1F7CE010E9482
:1003F00085016F2DCE01DF91CF911F910F91FF905D
:10040000EF90DF90CF900C94850140E0682F83E35C
:1004100091E00C94B20181E00E9405028BE39FE120
:100420000197F1F70895CF93DF93823029F49091EB
:1004300042019860909342018093460110924701D7
:1004400080E48093480180E18093490180E58093B6
:100450004A0161E0809137010E94070180913801D3
:100460008F3F19F061E00E94070161E0809139013E
:100470000E940701C3E3D1E09E01235331408091E4
:10048000420184FD0BC084E090E0219628173907D3
:1004900044F461E08E810E940701EECF88E090E095
:1004A000F4CF8BE39DE00197F1F760E08091370195
:1004B0000E94BB0060E0809139010E94BB008091E6
:1004C00038018F3F19F060E00E94BB00809142012B
:1004D00084FD34C063E083E391E00E948501CBE4B6
:1004E000D6E4CE010197F1F763E083E391E00E9447
:1004F00085012197F1F763E083E391E00E94850194
:1005000083E592E00197F1F762E083E391E00E94D6
:1005100085018091420180620E94050284E08093FF
:1005200043018CE00E9405020E940B0282E080934E
:10053000440186E0DF91CF910C94050280620E9415
:1005400005028BE496E40197F1F780914201806205
:100550000E94050283E592E00197F1F78091420144
:1005600080620E940502D5CF90914601891710F054
:100570008FEF890FE82FF0E0ED5CFE4F84898068F3
:100580000C94050241E00E94B20181E090E00895E0
:100590001F920F920FB60F9211242F933F938F93B8
:1005A0009F93AF93BF938091290190912A01A091CD
:1005B0002B01B0912C013091280123E0230F2D371E
:1005C00058F50196A11DB11D2093280180932901A2
:1005D00090932A01A0932B01B0932C0180912D01BF
:1005E00090912E01A0912F01B09130010196A11D93
:1005F000B11D80932D0190932E01A0932F01B093F4
:100600003001BF91AF919F918F913F912F910F90AA
:100610000FBE0F901F90189526E8230F0296A11D7C
:10062000B11DD2CF1F920F920FB60F9211242F93AC
:100630003F934F935F936F937F938F939F93AF936A
:10064000BF93EF93FF93E0910201F09103010995AD
:10065000FF91EF91BF91AF919F918F917F916F919A
:100660005F914F913F912F910F900FBE0F901F9070
:1006700018951F920F920FB60F9211242F933F934C
:100680004F935F936F937F938F939F93AF93BF939A
:10069000EF93FF93E0910001F09101010995FF9123
:1006A000EF91BF91AF919F918F917F916F915F91EA
:1006B0004F913F912F910F900FBE0F901F90189563
:1006C000789484B5826084BD84B5816084BD85B52D
:1006D000826085BD85B5816085BD80916E00816039
:1006E00080936E00109281008091810082608093DF
:1006F00081008091810081608093810080918000E1
:100700008160809380008091B10084608093B1000B
:100710008091B00081608093B00080917A00846005
:1007200080937A0080917A00826080937A00809131
:100730007A00816080937A0080917A00806880934B
:100740007A001092C10082E00E94130260E083E010
:100750000E94070161E081E00E94070187E890E0C4
:10076000909303018093020180916900837F8093BD
:100770006900E99AC0E0D0E08091310190913201A6
:10078000892B91F480E00E94B40280E191E00E9404
:10079000620181E00E94B40289E191E00E9462015D
:1007A00060E081E00E94BB008091310190913201B4
:1007B000019709F03FC00E940B0280E00E94B40242
:1007C00080E191E00E94620181E00E94B4028EE12A
:1007D00091E00E94620161E081E00E94BB00109202
:1007E0003201109231010E9438014B015C0188EE08
:1007F000C82E83E0D82EE12CF12C0E943801681914
:1008000079098A099B09683E734081059105A8F31F
:1008100021E0C21AD108E108F10888EE880E83E0D1
:10082000981EA11CB11CC114D104E104F10429F7E4
:100830000E940B02209709F49FCF0E9400009CCFDA
:10084000E3E3F1E01382128288E091E091838083F8
:100850008DE084838FEF85838CE086838BE08783B4
:100860008AE0808789E0818788E082871386148602
:1008700015861686178681E00C941302EE0FFF1F73
:100880000590F491E02D0994F894FFCF5D015D018E
:1008900000000000C2028E005F015E016573746F8C
:1008A0007920656E006C6F6F7000696E746572728E
:0408B00075707400EB
:107E0000112484B714BE81FFF0D085E080938100F7
:107E100082E08093C00088E18093C10086E0809377
:107E2000C20080E18093C4008EE0C9D0259A86E02C
:107E300020E33CEF91E0309385002093840096BBD3
:107E4000B09BFECF1D9AA8958150A9F7CC24DD24C4
:107E500088248394B5E0AB2EA1E19A2EF3E0BF2EE7
:107E6000A2D0813461F49FD0082FAFD0023811F036
:107E7000013811F484E001C083E08DD089C08234E0
:107E800011F484E103C0853419F485E0A6D080C0E4
:107E9000853579F488D0E82EFF2485D0082F10E0AE
:107EA000102F00270E291F29000F111F8ED06801E7
:107EB0006FC0863521F484E090D080E0DECF843638
:107EC00009F040C070D06FD0082F6DD080E0C81688
:107ED00080E7D80618F4F601B7BEE895C0E0D1E017
:107EE00062D089930C17E1F7F0E0CF16F0E7DF06D8
:107EF00018F0F601B7BEE89568D007B600FCFDCFD4
:107F0000A601A0E0B1E02C9130E011968C91119780
:107F100090E0982F8827822B932B1296FA010C0160
:107F200087BEE89511244E5F5F4FF1E0A038BF0790
:107F300051F7F601A7BEE89507B600FCFDCF97BE46
:107F4000E89526C08437B1F42ED02DD0F82E2BD052
:107F50003CD0F601EF2C8F010F5F1F4F84911BD097
:107F6000EA94F801C1F70894C11CD11CFA94CF0C13
:107F7000D11C0EC0853739F428D08EE10CD085E9AC
:107F80000AD08FE07ACF813511F488E018D01DD067
:107F900080E101D065CF982F8091C00085FFFCCF94
:107FA0009093C60008958091C00087FFFCCF809118
:107FB000C00084FD01C0A8958091C6000895E0E648
:107FC000F0E098E1908380830895EDDF803219F02E
:107FD00088E0F5DFFFCF84E1DECF1F93182FE3DFCA
:107FE0001150E9F7F2DF1F91089580E0E8DFEE27F6
:047FF000FF270994CA
:027FFE00040479
:00000001FF
