:100000000C945C000C946E000C946E000C946E00CA
:100010000C946E000C946E000C946E000C946E00A8
:100020000C946E000C946E000C946E000C946E0098
:100030000C946E000C946E000C946E000C946E0088
:100040000C94E7000C946E000C946E000C946E00FF
:100050000C946E000C946E000C946E000C946E0068
:100060000C946E000C946E00000000080002010069
:100070000003040700000000000000000000000072
:10008000250028002B0000000000240027002A0083
:10009000040404040404040402020202020203032E
:1000A0000303030301020408102040800102040836
:1000B000102001020408102011241FBECFEFD8E049
:1000C000DEBFCDBF21E0A0E0B1E001C01D92AF30A6
:1000D000B207E1F70E9431010C9444020C94000035
:1000E00090E0FC01EC55FF4F249180579F4FFC019D
:1000F0008491882399F090E0880F991FFC01EA57BA
:10010000FF4FA591B491FC01E458FF4F8591949164
:100110008FB7F894EC91E22BEC938FBF089590E0A9
:10012000FC01E859FF4F2491FC01EC55FF4F34913D
:10013000FC01E057FF4FE491EE23C9F0222339F090
:10014000233001F1A8F4213019F1223029F1F0E037
:10015000EE0FFF1FE458FF4FA591B4918FB7F894AD
:10016000EC91611126C030953E233C938FBF0895DA
:100170002730A9F02830C9F0243049F78091800059
:100180008F7D03C0809180008F7780938000DFCFC8
:1001900084B58F7784BDDBCF84B58F7DFBCF809115
:1001A000B0008F778093B000D2CF8091B0008F7D68
:1001B000F9CF3E2BDACF2FB7F89460910B017091F5
:1001C0000C0180910D0190910E012FBF08951F9297
:1001D0000F920FB60F9211242F933F938F939F93FB
:1001E000AF93BF9380910B0190910C01A0910D01F1
:1001F000B0910E0130910A0123E0230F2D3758F5FD
:100200000196A11DB11D20930A0180930B019093CB
:100210000C01A0930D01B0930E0180910601909105
:100220000701A0910801B09109010196A11DB11D1E
:100230008093060190930701A0930801B0930901F0
:10024000BF91AF919F918F913F912F910F900FBED2
:100250000F901F90189526E8230F0296A11DB11D3F
:10026000D2CF789484B5826084BD84B5816084BD2A
:1002700085B5826085BD85B5816085BD80916E0044
:10028000816080936E001092810080918100826075
:1002900080938100809181008160809381008091B2
:1002A00080008160809380008091B10084608093A1
:1002B000B1008091B00081608093B00080917A009D
:1002C000846080937A0080917A00826080937A00C3
:1002D00080917A00816080937A0080917A008068B2
:1002E00080937A001092C10081E00E94700082E049
:1002F0000E94700083E00E9470000E94DB00609307
:100300000001709301018093020190930301109208
:10031000050110920401C0E0D0E002E010E083E0AB
:10032000E82EF12CCC24C394D12C8091040190911F
:1003300005018130910509F461C03CF4892B69F114
:10034000209799F30E940000F0CF8230910509F4C4
:1003500074C00397A9F761E082E00E948F0060E01B
:1003600083E00E948F000E94DB00AB01BC01809102
:10037000000190910101A0910201B0910301885701
:100380009C4EAF4FBF4F481759076A077B07C0F213
:10039000109205011092040126C061E081E00E94E4
:1003A0008F0060E082E00E948F0060E083E00E94A6
:1003B0008F000E94DB00AB01BC0180910001909195
:1003C0000101A0910201B0910301805E914BAF4FFA
:1003D000BF4F481759076A077B0708F4B1CFD0927F
:1003E0000501C09204010E94DB006093000170933C
:1003F00001018093020190930301A2CF61E082E0AA
:100400000E948F000E94DB00AB01BC0180910001C3
:1004100090910101A0910201B091030188579C4E77
:10042000AF4FBF4F481759076A077B0708F488CFBB
:100430001093050100930401D6CF60E081E00E9493
:100440008F0060E082E00E948F0061E083E00E9404
:100450008F000E94DB00AB01BC01809100019091F4
:100460000101A0910201B0910301805D9A48AF4F54
:10047000BF4F481759076A077B0708F461CFF0920E
:0C0480000501E0920401AFCFF894FFCF1B
:00000001FF
