:100000000C9462000C9413030C943A030C948A0031
:100010000C948A000C948A000C948A000C948A0038
:100020000C948A000C948A000C948A000C948A0028
:100030000C948A000C948A000C948A000C948A0018
:100040000C9461030C948A000C948A000C948A002E
:100050000C948A000C948A000C948A000C948A00F8
:100060000C948A000C948A00000000080002010031
:100070000003040700000000000000000102040863
:100080001020408001020408102001020408102002
:10009000040404040404040402020202020203032E
:1000A00003030303000000002300260029000000D2
:1000B0000000250028002B0000000000240027007D
:1000C0002A00650111241FBECFEFD8E0DEBFCDBFEF
:1000D00011E0A0E0B1E0E4E6FCE002C005900D9282
:1000E000A033B107D9F721E0A0E3B1E001C01D9230
:1000F000A535B207E1F710E0C4ECD0E004C02297C8
:10010000FE010E942C06C23CD107C9F70E94F805E7
:100110000C9430060C94000081E090E09093310143
:1001200080933001089541E050E06CE870E081E098
:100130000E94F30220E042E060E184E391E00E944B
:100140002E0260E082E00E94770460E081E00E947D
:10015000770461E087E00C947704809132019091FC
:1001600033014497E0F58091300190913101892B62
:10017000B1F540E060E084E391E00E94140264E0A5
:1001800071E084E391E00E944D0541E060E084E38A
:1001900091E00E94140260913201709133014AE0B3
:1001A00050E084E391E00E94EF0582E00E94E604C3
:1001B000019741F48091320190913301843191058E
:1001C0000CF45EC081E00E94E604019741F4809146
:1001D000320190913301181619060CF45DC080911C
:1001E000320190913301449749F58091300190910B
:1001F0003101892B19F584E391E00E940D0240E062
:1002000060E084E391E00E94140264E171E084E321
:1002100091E00E944D0581E00E94E604019741F4BF
:100220008091320190913301181619060CF440C0E8
:1002300068EC70E080E090E00E94CE038091300195
:1002400090913101019709F03FC084E391E00E9451
:100250000D0240E060E084E391E00E94140261E25C
:1002600071E084E391E00E944D0568EE73E080E068
:1002700090E00E94CE031092310110923001089557
:100280000196909333018093320160E971E080E040
:1002900090E00E94CE0396CF019790933301809314
:1002A000320160E971E080E090E00E94CE0397CFD8
:1002B0000197909333018093320160E971E080E00F
:1002C00090E00E94CE03B4CF0895CF92EF920F93A7
:1002D00088E0C82E99E0E92E0AE02BE04CE06DE0C2
:1002E00084E391E00E94CC020F91EF90CF900895AB
:1002F000CF93DF93EC0160E08E810E94B00481E037
:1003000090E00E94080461E08E810E94B00481E0C8
:1003100090E00E94080460E08E810E94B00484E6B0
:1003200090E0DF91CF910C940804EF92FF920F932D
:100330001F93CF93DF938C01C0E0D0E0E62EF12C29
:10034000B7010C2E02C0759567950A94E2F76170AB
:10035000F801EC0FFD1F87810E94B0042196C43084
:10036000D10571F7C801DF91CF911F910F91FF90D7
:10037000EF900C947801EF92FF920F931F93CF931D
:10038000DF938C01C0E0D0E0E62EF12CB7010C2EFB
:1003900002C0759567950A94E2F76170F801EC0F59
:1003A000FD1F87810E94B0042196C830D10571F7E6
:1003B000C801DF91CF911F910F91FF90EF900C94A6
:1003C00078011F93CF93DF93EC01162F642F8C815C
:1003D0000E94B0048D818F3F19F060E00E94B0044C
:1003E0008F85612F84FF06C0CE01DF91CF911F91D1
:1003F0000C94BB0170E084E0759567958A95E1F7F0
:10040000CE010E949501612FCE01DF91CF911F9106
:100410000C94950140E00C94E10161E00E940A0215
:1004200080ED97E00C940804443008F043E0FC01B0
:100430002389421710F04FEF420FFC01E40FF11D2A
:100440002489260F2068622F0C940A02FC0160891F
:10045000262F2460208B6C600C940A020F931F934C
:10046000CF93DF93EC01423018F08F8588608F873F
:100470004B8B1C8A80E48D8B6E8B70E0605C7F4FB1
:100480006F8B222329F0413019F48F8584608F8788
:1004900061E08C810E9477048D818F3F19F061E0CB
:1004A0000E94770461E08E810E94770400E010E0F2
:1004B0008F8584FF03C088E090E002C084E090E074
:1004C0000817190754F4FE01E00FF11F61E087815E
:1004D0000E9477040F5F1F4FEBCF80E593EC0E94E3
:1004E000080460E08C810E94B00460E08E810E946C
:1004F000B0048D818F3F19F060E00E94B0046F85D9
:1005000064FD1DC063E0CE010E94950184E991E184
:100510000E94080463E0CE010E94950184E991E104
:100520000E94080463E0CE010E94950186E990E0F4
:100530000E94080462E0CE010E94950116C060622C
:10054000CE010E940A0284E991E10E9408046F85AD
:100550006062CE010E940A0286E990E00E940804CF
:100560006F856062CE010E940A026F856062CE01D3
:100570000E940A0284E0888BCE010E942602CE01EE
:100580000E940D0282E0898B66E0CE01DF91CF915F
:100590001F910F910C940A02CF92EF920F93FC01DE
:1005A000138212828CE291E09183808364838FEFC7
:1005B0008583468327830087E186C2861386148657
:1005C00015861686178620E041E060E1CF010F9185
:1005D000EF90CF900C942E0241E00E94E10181E067
:1005E00090E0089508958230E8F4E82FF0E0EE0FEF
:1005F000FF1FE050FF4F71836083813041F0809195
:1006000069008C7F842B80936900E89A089580911B
:100610006900440F551F440F551F837F842B80931F
:100620006900E99A08951F920F920FB60F92112454
:100630002F933F934F935F936F937F938F939F93EA
:10064000AF93BF93EF93FF93E0910001F09101010D
:100650000995FF91EF91BF91AF919F918F917F91FC
:100660006F915F914F913F912F910F900FBE0F901F
:100670001F9018951F920F920FB60F9211242F936F
:100680003F934F935F936F937F938F939F93AF931A
:10069000BF93EF93FF93E0910201F091030109955D
:1006A000FF91EF91BF91AF919F918F917F916F914A
:1006B0005F914F913F912F910F900FBE0F901F9020
:1006C00018951F920F920FB60F9211242F933F93FC
:1006D0008F939F93AF93BF9380914D0190914E0163
:1006E000A0914F01B091500130914C0123E0230FB4
:1006F0002D3720F40196A11DB11D05C026E8230F5A
:100700000296A11DB11D20934C0180934D01909341
:100710004E01A0934F01B0935001809151019091EF
:100720005201A0915301B09154010196A11DB11D38
:100730008093510190935201A0935301B0935401BF
:10074000BF91AF919F918F913F912F910F900FBECD
:100750000F901F9018953FB7F89480915101909198
:100760005201A0915301B091540126B5A89B05C038
:100770002F3F19F00196A11DB11D3FBF6627782FAD
:10078000892F9A2F620F711D811D911D42E0660F06
:10079000771F881F991F4A95D1F708958F929F92CE
:1007A000AF92BF92CF92DF92EF92FF926B017C01EA
:1007B0000E94AB034B015C01C114D104E104F104BC
:1007C000F1F00E9407060E94AB03681979098A09B3
:1007D0009B09683E73408105910570F321E0C21AC0
:1007E000D108E108F10888EE880E83E0981EA11C6C
:1007F000B11CC114D104E104F10429F7DDCFFF904D
:10080000EF90DF90CF90BF90AF909F908F90089522
:100810008230910538F0880F991F880F991F05972E
:100820000197F1F70895789484B5826084BD84B50A
:10083000816084BD85B5826085BD85B5816085BDDB
:10084000EEE6F0E0808181608083E1E8F0E01082F4
:10085000808182608083808181608083E0E8F0E035
:10086000808181608083E1EBF0E08081846080831F
:10087000E0EBF0E0808181608083EAE7F0E0808156
:1008800084608083808182608083808181608083B6
:100890008081806880831092C1000895833081F048
:1008A00028F4813099F08230A1F008958730A9F0C2
:1008B0008830B9F08430D1F4809180008F7D03C0FE
:1008C000809180008F7780938000089584B58F7722
:1008D00002C084B58F7D84BD08958091B0008F776C
:1008E00003C08091B0008F7D8093B0000895CF93B6
:1008F000DF9390E0FC01E458FF4F2491FC01E057A6
:10090000FF4F8491882349F190E0880F991FFC01E3
:10091000E854FF4FA591B49182559F4FFC01C591BA
:10092000D4919FB7611108C0F8948C9120958223CF
:100930008C93888182230AC0623051F4F8948C91A0
:10094000322F309583238C938881822B888304C037
:10095000F8948C91822B8C939FBFDF91CF91089557
:100960000F931F93CF93DF931F92CDB7DEB7282F3E
:1009700030E0F901E859FF4F8491F901E458FF4F45
:100980001491F901E057FF4F04910023C9F0882327
:1009900021F069830E944E046981E02FF0E0EE0FA0
:1009A000FF1FE255FF4FA591B4919FB7F8948C912A
:1009B000611103C01095812301C0812B8C939FBFCF
:1009C0000F90DF91CF911F910F910895CF93DF93F7
:1009D000282F30E0F901E859FF4F8491F901E458DC
:1009E000FF4FD491F901E057FF4FC491CC2391F010
:1009F00081110E944E04EC2FF0E0EE0FFF1FEC552A
:100A0000FF4FA591B4912C912D2381E090E021F42A
:100A100080E002C080E090E0DF91CF910895CF9216
:100A2000DF92EF92FF920F931F93CF93DF937C019E
:100A30006A01EB0100E010E00C151D0571F06991F1
:100A4000D701ED91FC910190F081E02DC70109954E
:100A5000892B19F00F5F1F4FEFCFC801DF91CF91A6
:100A60001F910F91FF90EF90DF90CF900895611547
:100A7000710581F0DB010D900020E9F7AD014150D7
:100A80005109461B570BDC01ED91FC910280F3816B
:100A9000E02D099480E090E008950C943705DC0186
:100AA000ED91FC910190F081E02D09948F929F923D
:100AB000AF92BF92DF92EF92FF920F931F93CF936B
:100AC000DF93CDB7DEB7A1970FB6F894DEBF0FBEA8
:100AD000CDBF7C01F42FD52ECB0119A2223008F412
:100AE0002AE08E010F5D1F4F822E912CA12CB12C7C
:100AF0006F2F7D2DA50194010E940806F22FD32EA1
:100B0000CA01015011096A3014F4E0E301C0E7E3BF
:100B1000E60FD801EC93232B242B252B49F7B801A2
:100B2000C7010E943705A1960FB6F894DEBF0FBE2D
:100B3000CDBFDF91CF911F910F91FF90EF90DF908C
:100B4000BF90AF909F908F900895CF92DF92EF92D9
:100B5000FF920F931F93CF93DF93EC016A017B0108
:100B60002115310579F4E881F9810190F081E02DBA
:100B7000642FDF91CF911F910F91FF90EF90DF9045
:100B8000CF9009942A303105E9F477FF1AC06DE25D
:100B90000E944F058C0144275527BA014C195D0965
:100BA0006E097F092AE0CE010E945605800F911F31
:100BB000DF91CF911F910F91FF90EF90DF90CF9039
:100BC00008952AE0B701A601CE01DF91CF911F91D0
:100BD0000F91FF90EF90DF90CF900C9456059A0103
:100BE000AB01662757FD6095762F0C94A5050895F7
:100BF0000E9413040E94F7050E949300C0E0D0E019
:100C00000E94AD002097E1F30E940000F9CF089503
:100C1000A1E21A2EAA1BBB1BFD010DC0AA1FBB1F00
:100C2000EE1FFF1FA217B307E407F50720F0A21B72
:100C3000B30BE40BF50B661F771F881F991F1A94DF
:100C400069F760957095809590959B01AC01BD0109
:100C5000CF010895EE0FFF1F0590F491E02D099448
:040C6000F894FFCF36
:100C6400F202F20268617920756E20746F74616C0F
:100C7400206465006E6F20686179206C756761720D
:100C8400006573706572650000000000EC020F05DA
:00000001FF
