:100000000C9462000C946B030C9492030C948A0081
:100010000C948A000C948A000C948A000C948A0038
:100020000C948A000C948A000C948A000C948A0028
:100030000C948A000C948A000C948A000C948A0018
:100040000C94B9030C948A000C948A000C948A00D6
:100050000C948A000C948A000C948A000C948A00F8
:100060000C948A000C948A00000000080002010031
:100070000003040700000000000000000102040863
:100080001020408001020408102001020408102002
:10009000040404040404040402020202020203032E
:1000A00003030303000000002300260029000000D2
:1000B0000000250028002B0000000000240027007D
:1000C0002A00BD0111241FBECFEFD8E0DEBFCDBF97
:1000D00011E0A0E0B1E0E4E1FDE002C005900D9286
:1000E000A633B107D9F721E0A6E3B1E001C01D9224
:1000F000AD35B207E1F710E0C4ECD0E004C02297C0
:10010000FE010E948406C23CD107C9F70E94500636
:100110000C9488060C94000081E090E090933B01E1
:1001200080933A01089540E050E06CE870E081E08F
:100130000E944B0320E042E060E18CE391E00E94EA
:10014000860260E081E00E94CF0460E082E00E94CD
:10015000CF0460E083E00C94CF04CF93DF9340E0C2
:1001600060E08CE391E00E946C0264E071E08CE35B
:1001700091E00E94A50541E060E08CE391E00E94DF
:100180006C026FE071E08CE391E00E94A50581E0D4
:100190000E943E050197A1F08091380190913901AC
:1001A000019771F082E00E943E05019709F474C046
:1001B0008091380190913901029709F0DBC06CC041
:1001C00010923701109236018091360190913701DB
:1001D0008A3091053CF7099721F410923901109269
:1001E0003801C0913A01D0913B01C130D10551F5A0
:1001F0008CE391E00E94650240E060E08CE391E0D6
:100200000E946C0267E171E08CE391E00E94A50519
:1002100041E060E08CE391E00E946C0261E271E0F9
:100220008CE391E00E94A50568EE73E080E090E029
:100230000E94260410923B0110923A01D09339019A
:10024000C093380180913A0190913B01892BD1F400
:100250008CE391E00E94650240E060E08CE391E075
:100260000E946C0260913601709137014AE050E0C3
:100270008CE391E00E94470668EE73E080E090E036
:100280000E94260480913601909137010196909347
:1002900037018093360198CF89E090E09093370141
:1002A00080933601C2E0D0E0809136019091370111
:1002B00097FD60C0892B21F410923901109238010A
:1002C00080913A0190913B01019751F58CE391E0C7
:1002D0000E94650240E060E08CE391E00E946C02C5
:1002E00067E171E08CE391E00E94A50541E060E0E8
:1002F0008CE391E00E946C0261E271E08CE391E09A
:100300000E94A50568EE73E080E090E00E9426045C
:1003100010923B0110923A01D0933901C0933801F9
:1003200080913A0190913B01892BD1F48CE391E0CB
:100330000E94650240E060E08CE391E00E946C0264
:1003400060913601709137014AE050E08CE391E012
:100350000E94470668EE73E080E090E00E94260469
:1003600080913601909137010197909337018093E6
:1003700036019ACFDF91CF910895CF92EF920F93EC
:1003800088E0C82E99E0E92E0AE02BE04CE06DE011
:100390008CE391E00E9424030F91EF90CF90089599
:1003A000CF93DF93EC0160E08E810E94080581E02D
:1003B00090E00E94600461E08E810E94080581E067
:1003C00090E00E94600460E08E810E94080584E64F
:1003D00090E0DF91CF910C946004EF92FF920F9325
:1003E0001F93CF93DF938C01C0E0D0E0E62EF12C79
:1003F000B7010C2E02C0759567950A94E2F76170FB
:10040000F801EC0FFD1F87810E9408052196C4307A
:10041000D10571F7C801DF91CF911F910F91FF9026
:10042000EF900C94D001EF92FF920F931F93CF9314
:10043000DF938C01C0E0D0E0E62EF12CB7010C2E4A
:1004400002C0759567950A94E2F76170F801EC0FA8
:10045000FD1F87810E9408052196C830D10571F7DC
:10046000C801DF91CF911F910F91FF90EF900C94F5
:10047000D0011F93CF93DF93EC01162F642F8C8153
:100480000E9408058D818F3F19F060E00E940805E9
:100490008F85612F84FF06C0CE01DF91CF911F9120
:1004A0000C94130270E084E0759567958A95E1F7E6
:1004B000CE010E94ED01612FCE01DF91CF911F91FE
:1004C0000C94ED0140E00C94390261E00E9462025C
:1004D00080ED97E00C946004443008F043E0FC01A8
:1004E0002389421710F04FEF420FFC01E40FF11D7A
:1004F0002489260F2068622F0C946202FC01608917
:10050000262F2460208B6C600C9462020F931F9343
:10051000CF93DF93EC01423018F08F8588608F878E
:100520004B8B1C8A80E48D8B6E8B70E0605C7F4F00
:100530006F8B222329F0413019F48F8584608F87D7
:1005400061E08C810E94CF048D818F3F19F061E0C2
:100550000E94CF0461E08E810E94CF0400E010E091
:100560008F8584FF03C088E090E002C084E090E0C3
:100570000817190754F4FE01E00FF11F61E08781AD
:100580000E94CF040F5F1F4FEBCF80E593EC0E94DA
:10059000600460E08C810E94080560E08E810E940A
:1005A00008058D818F3F19F060E00E9408056F8576
:1005B00064FD1DC063E0CE010E94ED0184E991E17C
:1005C0000E94600463E0CE010E94ED0184E991E1A4
:1005D0000E94600463E0CE010E94ED0186E990E094
:1005E0000E94600462E0CE010E94ED0116C06062CC
:1005F000CE010E94620284E991E10E9460046F854D
:100600006062CE010E94620286E990E00E9460046E
:100610006F856062CE010E9462026F856062CE01CA
:100620000E94620284E0888BCE010E947E02CE018D
:100630000E94650282E0898B66E0CE01DF91CF9156
:100640001F910F910C946202CF92EF920F93FC01D5
:100650001382128282E391E09183808364838FEF1F
:100660008583468327830087E186C28613861486A6
:1006700015861686178620E041E060E1CF010F91D4
:10068000EF90CF900C94860241E00E94390281E005
:1006900090E0089508958230E8F4E82FF0E0EE0F3E
:1006A000FF1FE050FF4F71836083813041F08091E4
:1006B00069008C7F842B80936900E89A089580916B
:1006C0006900440F551F440F551F837F842B80936F
:1006D0006900E99A08951F920F920FB60F921124A4
:1006E0002F933F934F935F936F937F938F939F933A
:1006F000AF93BF93EF93FF93E0910001F09101015D
:100700000995FF91EF91BF91AF919F918F917F914B
:100710006F915F914F913F912F910F900FBE0F906E
:100720001F9018951F920F920FB60F9211242F93BE
:100730003F934F935F936F937F938F939F93AF9369
:10074000BF93EF93FF93E0910201F09103010995AC
:10075000FF91EF91BF91AF919F918F917F916F9199
:100760005F914F913F912F910F900FBE0F901F906F
:1007700018951F920F920FB60F9211242F933F934B
:100780008F939F93AF93BF938091550190915601A2
:10079000A0915701B09158013091540123E0230FEB
:1007A0002D3720F40196A11DB11D05C026E8230FA9
:1007B0000296A11DB11D2093540180935501909381
:1007C0005601A0935701B09358018091590190911F
:1007D0005A01A0915B01B0915C010196A11DB11D70
:1007E0008093590190935A01A0935B01B0935C01EF
:1007F000BF91AF919F918F913F912F910F900FBE1D
:100800000F901F9018953FB7F894809159019091DF
:100810005A01A0915B01B0915C0126B5A89B05C06F
:100820002F3F19F00196A11DB11D3FBF6627782FFC
:10083000892F9A2F620F711D811D911D42E0660F55
:10084000771F881F991F4A95D1F708958F929F921D
:10085000AF92BF92CF92DF92EF92FF926B017C0139
:100860000E9403044B015C01C114D104E104F104B2
:10087000F1F00E945F060E940304681979098A0951
:100880009B09683E73408105910570F321E0C21A0F
:10089000D108E108F10888EE880E83E0981EA11CBB
:1008A000B11CC114D104E104F10429F7DDCFFF909C
:1008B000EF90DF90CF90BF90AF909F908F90089572
:1008C0008230910538F0880F991F880F991F05977E
:1008D0000197F1F70895789484B5826084BD84B55A
:1008E000816084BD85B5826085BD85B5816085BD2B
:1008F000EEE6F0E0808181608083E1E8F0E0108244
:10090000808182608083808181608083E0E8F0E084
:10091000808181608083E1EBF0E08081846080836E
:10092000E0EBF0E0808181608083EAE7F0E08081A5
:100930008460808380818260808380818160808305
:100940008081806880831092C1000895833081F097
:1009500028F4813099F08230A1F008958730A9F011
:100960008830B9F08430D1F4809180008F7D03C04D
:10097000809180008F7780938000089584B58F7771
:1009800002C084B58F7D84BD08958091B0008F77BB
:1009900003C08091B0008F7D8093B0000895CF9305
:1009A000DF9390E0FC01E458FF4F2491FC01E057F5
:1009B000FF4F8491882349F190E0880F991FFC0133
:1009C000E854FF4FA591B49182559F4FFC01C5910A
:1009D000D4919FB7611108C0F8948C91209582231F
:1009E0008C93888182230AC0623051F4F8948C91F0
:1009F000322F309583238C938881822B888304C087
:100A0000F8948C91822B8C939FBFDF91CF910895A6
:100A10000F931F93CF93DF931F92CDB7DEB7282F8D
:100A200030E0F901E859FF4F8491F901E458FF4F94
:100A30001491F901E057FF4F04910023C9F0882376
:100A400021F069830E94A6046981E02FF0E0EE0F97
:100A5000FF1FE255FF4FA591B4919FB7F8948C9179
:100A6000611103C01095812301C0812B8C939FBF1E
:100A70000F90DF91CF911F910F910895CF93DF9346
:100A8000282F30E0F901E859FF4F8491F901E4582B
:100A9000FF4FD491F901E057FF4FC491CC2391F05F
:100AA00081110E94A604EC2FF0E0EE0FFF1FEC5521
:100AB000FF4FA591B4912C912D2381E090E021F47A
:100AC00080E002C080E090E0DF91CF910895CF9266
:100AD000DF92EF92FF920F931F93CF93DF937C01EE
:100AE0006A01EB0100E010E00C151D0571F0699141
:100AF000D701ED91FC910190F081E02DC70109959E
:100B0000892B19F00F5F1F4FEFCFC801DF91CF91F5
:100B10001F910F91FF90EF90DF90CF900895611596
:100B2000710581F0DB010D900020E9F7AD01415026
:100B30005109461B570BDC01ED91FC910280F381BA
:100B4000E02D099480E090E008950C948F05DC017D
:100B5000ED91FC910190F081E02D09948F929F928C
:100B6000AF92BF92DF92EF92FF920F931F93CF93BA
:100B7000DF93CDB7DEB7A1970FB6F894DEBF0FBEF7
:100B8000CDBF7C01F42FD52ECB0119A2223008F461
:100B90002AE08E010F5D1F4F822E912CA12CB12CCB
:100BA0006F2F7D2DA50194010E946006F22FD32E98
:100BB000CA01015011096A3014F4E0E301C0E7E30F
:100BC000E60FD801EC93232B242B252B49F7B801F2
:100BD000C7010E948F05A1960FB6F894DEBF0FBE25
:100BE000CDBFDF91CF911F910F91FF90EF90DF90DC
:100BF000BF90AF909F908F900895CF92DF92EF9229
:100C0000FF920F931F93CF93DF93EC016A017B0157
:100C10002115310579F4E881F9810190F081E02D09
:100C2000642FDF91CF911F910F91FF90EF90DF9094
:100C3000CF9009942A303105E9F477FF1AC06DE2AC
:100C40000E94A7058C0144275527BA014C195D095C
:100C50006E097F092AE0CE010E94AE05800F911F28
:100C6000DF91CF911F910F91FF90EF90DF90CF9088
:100C700008952AE0B701A601CE01DF91CF911F911F
:100C80000F91FF90EF90DF90CF900C94AE059A01FA
:100C9000AB01662757FD6095762F0C94FD050895EE
:100CA0000E946B040E944F060E949300C0E0D0E0B7
:100CB0000E94AD002097E1F30E940000F9CF089553
:100CC000A1E21A2EAA1BBB1BFD010DC0AA1FBB1F50
:100CD000EE1FFF1FA217B307E407F50720F0A21BC2
:100CE000B30BE40BF50B661F771F881F991F1A942F
:100CF00069F760957095809590959B01AC01BD0159
:100D0000CF010895EE0FFF1F0590F491E02D099497
:040D1000F894FFCF85
:100D14004A034A0370756C736520706172610069DF
:100D24006E69636961720065737461646F206465E0
:100D340000696E74657272757063696F6E0000008D
:060D4400000044036705F6
:00000001FF
