:100000000C9472000C949A000C949A000C949A0030
:100010000C949A000C949A000C949A000C949A00F8
:100020000C949A000C949A000C949A000C949A00E8
:100030000C949A000C949A000C949A000C949A00D8
:100040000C9457050C949A000C949A000C949A0006
:100050000C949A000C949A000C949A000C949A00B8
:100060000C943C040C949A00005EBCE2613FDD837A
:10007000C29C7E20A3FD1F41009D23BE46DB65F888
:100080008C11AF32CA57E974000000080002010069
:100090000003040700000000000000000000000052
:1000A000250028002B0000000000240027002A0063
:1000B00000000000230026002900040404040404B6
:1000C0000404020202020202030303030303010207
:1000D00004081020408001020408102001020408D6
:1000E0001020A10511241FBECFEFD8E0DEBFCDBF89
:1000F00011E0A0E0B1E0EAEAF4E102C005900D925F
:10010000A432B107D9F722E0A4E2B1E001C01D9208
:10011000A030B207E1F710E0C2E7D0E004C02197B9
:10012000FE010E941C09C137D107C9F70E94390698
:100130000C94530A0C94000020917801260F332769
:10014000331F21323105ECF420919C01FC0190E039
:1001500080E0243069F082E00895A0917801219137
:10016000AC01485A5E4FA40FB52FB11D2C930196D8
:10017000861798F380917801680F6093780180E08A
:10018000089581E0089508958FEF9FEF08958FEF10
:100190009FEF08958091510190E09195819591098B
:1001A0000895CF92DF92EF92FF920F931F93CF9318
:1001B000DF937C01CB018A0120915001222389F039
:1001C000EB016B01C40ED51ECC15DD0569F06991FC
:1001D000D701ED91FC910190F081E02DC7010995C7
:1001E000F3CF642F0E949C00C801DF91CF911F9133
:1001F0000F91FF90EF90DF90CF900895CF93DF9312
:100200001F92CDB7DEB76983209150012223F9F008
:1002100020914F01203258F021E030E0FC0133837F
:10022000228390E080E00F90DF91CF91089580913C
:100230004E01E82FF0E0E25DFE4F998190838F5FE1
:1002400080934E0180934F0181E090E0ECCF61E01C
:10025000CE0101960E949C00F7CF90E0FC01E85788
:10026000FF4F2491FC01E253FF4F3491FC01E6540F
:10027000FF4FE491EE23C9F0222339F0233001F13E
:10028000A8F4213019F1223029F1F0E0EE0FFF1F20
:10029000E456FF4FA591B4918FB7F894EC9161119A
:1002A00026C030953E233C938FBF08952730A9F098
:1002B0002830C9F0243049F7809180008F7D03C039
:1002C000809180008F7780938000DFCF84B58F7717
:1002D00084BDDBCF84B58F7DFBCF8091B0008F775D
:1002E0008093B000D2CF8091B0008F7DF9CF3E2BAC
:1002F000DACF1F93CF93DF93C1E0C09357018823D8
:1003000099F1D091B8001091BA008091BC008A7B1D
:100310008093BC0060E082E10E942D0160E083E1F7
:100320000E942D0110929C01C0939E0110929D018C
:1003300061E082E10E942D0161E083E10E942D01D4
:100340008091B9008E7F8093B9008091B9008D7F34
:100350008093B90088E48093B80085E48093BC0062
:100360001093BA00D093B800DF91CF911F910895F8
:100370003FB7F89480912A0190912B01A0912C0114
:10038000B0912D0126B5A89B05C02F3F19F001960D
:10039000A11DB11D3FBFBA2FA92F982F8827BC01DF
:1003A000CD01620F711D811D911D42E0660F771F07
:1003B000881F991F4A95D1F70895AF92BF92CF92A7
:1003C000DF92EF92FF920F931F93CF93DF936C0115
:1003D0007B018B01040F151FEB015E01AE18BF08F6
:1003E000C017D10759F06991D601ED91FC910190A8
:1003F000F081E02DC6010995892B79F7C501DF91C0
:10040000CF911F910F91FF90EF90DF90CF90BF9011
:10041000AF900895DC0180E0615090F09D919827A5
:10042000E92FEF70F0E0E859FF4F2491E92FE295B2
:10043000EF70F0E0E858FF4FE491822F8E27ECCF69
:100440000895DC012C911196ED91FC91F894818135
:10045000822B81839281322F30959323928387E080
:1004600090E00197F1F781818323818383E290E01B
:100470000197F1F790817894EFECF0E03197F1F784
:10048000922381E009F480E00895FC0190810180CD
:10049000F281E02D292F209560FF14C0F89482810D
:1004A000822382838181892B8183A3E2B0E011972B
:1004B000F1F78281982B9283789487ED90E00197F1
:1004C000F1F70895F8948281822382838181892BB8
:1004D0008183AFEFB0E01197F1F78281982B92837F
:1004E00078948FE090E0EBCFDF92EF92FF920F9342
:1004F0001F93CF93DF93EC01D62EE42E08E010E09B
:10050000FF24F39461E08D2D8F2109F460E0CE018A
:100510000E944502FF0C01501109A1F7E11010C023
:10052000F894E981FA81918188818095892381837A
:10053000E981FA81928188818095892382837894E8
:10054000DF91CF911F910F91FF90EF90DF90089571
:10055000FC0190810180F281E02DF8948181292FA6
:1005600020958223818378943DE743E050E0315029
:1005700029F1DA011197F1F780818923C1F3F89409
:100580008281822382838181892B81837894ABE766
:10059000B7E01197F1F7F894818182238183A3E179
:1005A000B1E01197F1F78081982381E009F080E0B4
:1005B0007894E3E6F6E03197F1F7089580E0089546
:1005C000CF92DF92EF92FF920F931F93CF93DF931F
:1005D000FC01C48121E020935001C09324011092BA
:1005E0004E0110924F018485682B82EC91E00E94AD
:1005F000FE00D0914F01D13208F092C00E94B801A4
:100600006B017C0180919C01811165C082E0809327
:100610009C0181E080939E018FEF80939B0110925B
:10062000C001D093BF01AEE2B1E0EFE9F1E080E0BC
:10063000D81385C01092C1018091C101CC0FC82B85
:10064000C093C10180919D01813009F07CC010925E
:100650009D010E94B8016B017C018091C1018093D2
:10066000BB008091530190915401A0915501B0912C
:100670005601892B8A2B8B2B99F00E94B80100918F
:1006800053011091540120915501309156016C197C
:100690007D098E099F090617170728073907E0F11A
:1006A0008091BC0083FDD9CF85EC8093BC000E9473
:1006B000B8016B017C0180919C01823009F445C036
:1006C00080919B018F3F61F180919B01803241F1CC
:1006D00080919B0125C08091530190915401A0917C
:1006E0005501B0915601892B8A2B8B2B09F48ACFA7
:1006F0000E94B801009153011091540120915501BD
:10070000309156016C197D098E099F09061717074C
:100710002807390708F076CF809152010E947901AD
:1007200010924E0110924F0110925001DF91CF9123
:100730001F910F91FF90EF90DF90CF9008959D91C2
:1007400091938F5F75CF85EEB0CF809153019091DB
:100750005401A0915501B0915601892B8A2B8B2B06
:1007600009F4A9CF0E94B8010091530110915401DE
:1007700020915501309156016C197D098E099F0910
:10078000061717072807390708F095CFC5CF089532
:1007900090E080E0089585ED8093BC008091530146
:1007A00090915401A0915501B09156010796A11D59
:1007B000B11D23E0B695A795979587952A95D1F712
:1007C0002091BC0024FD03C010929C01089540912B
:1007D0005301509154016091550170915601452B80
:1007E000462B472B69F30097A105B10541F025E39E
:1007F0002A95F1F700000197A109B109E1CF809195
:1008000052010C9479010F931F93CF938C01C62F43
:1008100064600E94E0026C2F6B7FC8010E94E002BE
:1008200083EC90E00197F1F7CF911F910F9108951C
:100830000F931F93CF93DF938C01C62FD62FD07FBA
:10084000D1606D2F0E94E0026D2FC8010E94030449
:1008500080E1C89FE0011124C1606C2FC8010E9493
:10086000E0026C2FC8010E94030481E090E0DF9158
:10087000CF911F910F9108951F920F920FB60F9273
:1008800011242F933F934F935F936F937F938F9395
:100890009F93AF93BF93EF93FF938091B900887FAD
:1008A000803609F44AC0F0F5883209F4A5C018F57D
:1008B000803109F499C0B8F4882309F4F5C0883070
:1008C00009F492C0FF91EF91BF91AF919F918F91E9
:1008D0007F916F915F914F913F912F910F900FBE3C
:1008E0000F901F901895883109F486C0803251F717
:1008F00080939B0114C0803409F49BC040F4803382
:10090000B9F38833F9F680939B0185ECAEC080354E
:1009100009F483C0883509F494C0883499F60E949C
:10092000CB03D0CF883909F48AC038F5883729F04D
:1009300050F4883611F0803729F683E080939C01CB
:1009400010929A0155C0883809F479C0803919F09D
:10095000803809F0B7CF80919A01803208F06FC0DB
:10096000E0919A0181E08E0F80939A018091BB0003
:10097000F0E0E658FE4F80833BC0803B39F0D0F476
:10098000803A09F477C0883A09F09CCF84E08093DC
:100990009C011092790110927801F0E0E0E0099555
:1009A0008091780181110FC081E0809378011092CD
:1009B000580109C0803C09F4A8CF883C09F4A5CFB0
:1009C000883B09F07FCFE091790181E08E0F809321
:1009D0007901F0E0E85AFE4F80818093BB0090914E
:1009E00079018091780129C08091C1018093BB0079
:1009F00085EC8093BC0066CF9091C0018091BF01CF
:100A0000981758F5E091C00181E08E0F8093C001E6
:100A1000F0E0E156FE4F8081E9CFE091C00181E036
:100A20008E0F8093C0018091BB00F0E0E156FE4F35
:100A300080839091C0018091BF019817C8F285E82A
:100A4000D8CFE091C00181E08E0F8093C0018091EA
:100A5000BB00F0E0E156FE4F808380919E01811142
:100A60005ECF81E080939D0184EA8093BC00109268
:100A70009C0128CF85EC8093BC0010929C01809152
:100A80009A01803230F4E0919A01F0E0E658FE4F8E
:100A9000108260919A0170E08AE791E0F0E0E0E076
:100AA000099510929A010ECF10929B0138CF1F9298
:100AB0000F920FB60F9211242F933F938F939F9312
:100AC000AF93BF938091260190912701A0912801B7
:100AD000B09129013091250123E0230F2D3758F5DE
:100AE0000196A11DB11D20932501809326019093AD
:100AF0002701A0932801B093290180912A019091A8
:100B00002B01A0912C01B0912D010196A11DB11DC9
:100B100080932A0190932B01A0932C01B0932D0177
:100B2000BF91AF919F918F913F912F910F900FBEE9
:100B30000F901F90189526E8230F0296A11DB11D56
:100B4000D2CFCF93DF931092C5011092C40188EEEB
:100B500093E0A0E0B0E08093C6019093C701A0931A
:100B6000C801B093C9018AE091E09093C3018093DA
:100B7000C2011092F6011092F5018CE191E0909380
:100B8000F4018093F3011092FC0187E28093F70156
:100B900080E18093FD0182E08093FE011092FF01CD
:100BA00044ED50E0FA01649180EC90E0FC01249166
:100BB0002223C1F030E0220F331FF901EA55FF4F25
:100BC000A591B491F901E456FF4FC591D4917FB737
:100BD000F8943C91262F209532233C93388123238F
:100BE00028837FBFFA0144914093E501FC01849181
:100BF000E82FF0E0EE0FFF1FE055FF4F8591949135
:100C00009093E7018093E6011092F0011092F201B7
:100C10001092F1011092EF011092EE011092ED018D
:100C20001092EC011092EB011092EA011092E9018E
:100C30001092E8011092E4011092E3011092CF01AA
:100C400085EE91E09093D8018093D7011092D50161
:100C50001092D6011092CE0189E08093D10181E0FB
:100C60008093D2018093D3018093D401DF91CF91FF
:100C70000895CF93DF93CDB7DEB761970FB6F894A1
:100C8000DEBF0FBECDBF789484B5826084BD84B5CD
:100C9000816084BD85B5826085BD85B5816085BD77
:100CA00080916E00816080936E001092810080912F
:100CB00081008260809381008091810081608093B7
:100CC0008100809180008160809380008091B100DC
:100CD00084608093B1008091B00081608093B00007
:100CE00080917A00846080937A0080917A0082609B
:100CF00080937A0080917A00816080937A0080915D
:100D00007A00806880937A001092C100E6EDF0E0EE
:100D10002491E2ECF0E08491882399F090E0880F30
:100D2000991FFC01EA55FF4FA591B491FC01E456CF
:100D3000FF4F859194918FB7F894EC91E22BEC934F
:100D40008FBFB0E06B2EB0E07B2E8091D7019091E9
:100D5000D8010E94A80240E06CEC8091D7019091EC
:100D6000D8010E9474024091CE0164E48091D701C1
:100D70009091D8010E9474028091D201882381F160
:100D80008091D301882309F468C08091CE0181113C
:100D900064C08FB7F894C0902601D0902701E090EE
:100DA0002801F09029018FBF8091D7019091D8013F
:100DB0000E9421028130A1F02FB7F8948091260182
:100DC00090912701A0912801B09129012FBF8C1982
:100DD0009D09AE09BF098E3E9240A105B10520F3E1
:100DE000E091D701F091D8011386158614861286FA
:100DF0001186108617821682158214821382E09063
:100E0000D701F090D801F7018585882309F46AC0DD
:100E1000D7011B961C921B971D961C921D971C9622
:100E20001C92C12CD12C6FE7E62E63ECF62E61E00C
:100E300088E00E942D01C701B6010E9422096D328F
:100E4000710524F060E088E00E942D0161147104B6
:100E500009F47BCF0E94000078CFE091D101E950E6
:100E60008EEE92E0E33038F4F0E0EE0FFF1FE0503A
:100E7000FF4F808191816C01F12CE12C8091CF0199
:100E8000882329F060E08091D0010E942D010E940A
:100E9000B8014B015C01C114D104E104F104B9F0C3
:100EA0000E94B801681979098A099B09683E734054
:100EB0008105910580F331E0C31AD108E108F108FA
:100EC00088EE880E83E0981EA11CB11CE4CF8091AF
:100ED000CF01882309F484CF61E08091D0010E9482
:100EE0002D017ECFC7010E94A802811105C0F70124
:100EF00013861586148695CF40E060EFC7010E94E7
:100F0000740201E0C12CB12C11E0C7010E94210242
:100F1000D82EC7010E942102F1E0DF1281C081308A
:100F200009F09FC0113408F473CFF701B386B110F4
:100F300002C021E02587D70113968C91882309F4FC
:100F400067CFF70133968E01065F1F4FBBE0EB0EB4
:100F5000F11CD801580181918D93EE15FF05D9F749
:100F600067E0C8010E940A02998989135ACF8091CB
:100F7000D7019091D8010E94A802882309F451CF8B
:100F8000E090D701F090D80140E065E5C7010E94EC
:100F900074026801E8E0CE0ED11CD8016D918D017C
:100FA00040E0C7010E9474020C151D05B1F740E036
:100FB0006EEB8091D7019091D8010E9474028E014E
:100FC0000F5F1F4F780118018090D7019090D801D2
:100FD00078E0C72ED12C512C44244394C4010E94A4
:100FE000210281115428440CB1E0CB1AD108B1F789
:100FF000F70151927F01AE16BF0631F78091D701FC
:101000009091D8010E94A802813009F00ACFD8013E
:101010008D918D018111BBC0AE15BF05C1F701CF08
:10102000EC2DF0E0D81213C0D7011B968C911B97C2
:101030001817A8F4AE0FBF1F13968C91802389F464
:10104000D12C193018F4D7011C961C93B12EEE0D3B
:10105000FF1D8381902F9095892383830AC081137C
:10106000EFCFF701EC0DF11D8381802B8383DD240D
:10107000D3946D2DC7010E9445021F5F000F11F42C
:10108000C39401E0B7E0BC1508F03FCF4BCF81FF20
:1010900005C060E871E88FEF9FEF9BC082FFC1CE73
:1010A00060E072E88FEF9FEF94C0D12CF12CE12C1F
:1010B00043E0CC0CDD1CEE1CFF1C4A95D1F7460129
:1010C0005701B0EE8B22B7E09B22AA24BB24C22E8C
:1010D000D12CF12CE12C5BE0CC0CDD1CEE1CFF1CB8
:1010E0005A95D1F7C828D928EA28FB286C297D29E8
:1010F0008E299F296138B0E87B07BFEF8B079B07DC
:101100000CF48FCE66C0022F10E0102F0027110FB5
:10111000110F110FE8E0CE9E600111240C291D294A
:10112000012E000C220B330B602B712B822B932B87
:10113000403101F728852223E9F26B017C0183E02D
:10114000CC0CDD1CEE1CFF1C8A95D1F7F0E8CF22F9
:10115000F7E0EF22FF2430E2C31AD108E108F108DA
:10116000622F70E08F81DB01A81BB109CD0196953C
:10117000982F8827979587950E94F408072E000CD2
:10118000880B990B6C0D7D1D8E1D9F1D22C068E084
:10119000C1010E940A029985891343CE2A8160E029
:1011A00070E0CB0127FF04C060E070E088EF9FEFA4
:1011B0004A85C9804B3309F0A6CF3D8137FFA3CFC5
:1011C000C0FE73CF8B8180FF62CF60E071E88FEF4C
:1011D0009FEF0E945A0920E030E040E05CE30E946B
:1011E000BE096B017C0123CE97FB072E16F40094F9
:1011F00007D077FD09D00E94080907FC05D03EF40E
:10120000909581959F4F0895709561957F4F0895B2
:10121000AA1BBB1B51E107C0AA1FBB1FA617B7071C
:1012200010F0A61BB70B881F991F5A95A9F7809538
:101230009095BC01CD010895EE0FFF1F0590F4912C
:10124000E02D09940E9429096894B1110C94B80901
:1012500008950E949D0988F09F5798F0B92F99270B
:10126000B751B0F0E1F0660F771F881F991F1AF091
:10127000BA95C9F714C0B13091F00E94B709B1E036
:1012800008950C94B709672F782F8827B85F39F035
:10129000B93FCCF3869577956795B395D9F73EF42A
:1012A00090958095709561957F4F8F4F9F4F0895D2
:1012B000E89409C097FB3EF49095809570956195F0
:1012C0007F4F8F4F9F4F9923A9F0F92F96E9BB27A6
:1012D0009395F695879577956795B795F111F8CF22
:1012E000FAF4BB0F11F460FF1BC06F5F7F4F8F4F8D
:1012F0009F4F16C0882311F096E911C0772321F083
:101300009EE8872F762F05C0662371F096E8862F1A
:1013100070E060E02AF09A95660F771F881FDAF771
:10132000880F9695879597F9089557FD9058440F23
:10133000551F59F05F3F71F04795880F97FB991F34
:1013400061F09F3F79F087950895121613061406F1
:10135000551FF2CF4695F1DF08C01616170618067E
:10136000991FF1CF86957105610508940895E89459
:10137000BB2766277727CB0197F908950E94D109EB
:101380000C94420A0E94340A38F00E943B0A20F072
:10139000952311F00C942B0A0C94310A11240C940F
:1013A000B8090E94950970F3959FC1F3950F50E01D
:1013B000551F629FF001729FBB27F00DB11D639F07
:1013C000AA27F00DB11DAA1F649F6627B00DA11DAD
:1013D000661F829F2227B00DA11D621F739FB00D53
:1013E000A11D621F839FA00D611D221F749F3327C3
:1013F000A00D611D231F849F600D211D822F762F5C
:101400006A2F11249F5750409AF0F1F088234AF038
:10141000EE0FFF1FBB1F661F771F881F91505040A4
:10142000A9F79E3F510580F00C942B0A0C94B80943
:101430005F3FE4F3983ED4F3869577956795B7952B
:10144000F795E7959F5FC1F7FE2B880F911D969545
:10145000879597F9089597F99F6780E870E060E0B5
:1014600008959FEF80EC089500240A94161617063D
:1014700018060906089500240A9412161306140685
:1014800005060895092E0394000C11F4882352F0E8
:10149000BB0F40F4BF2B11F460FF04C06F5F7F4FA0
:0A14A0008F4F9F4F0895F894FFCF7F
:1014AA005E00BC00770100000000FE00D100C80306
:1014BA00C300CA00C700C400000000001804DD0110
:0414CA00C803C70389
:00000001FF
