:020000040000FA
:100000000C9462000C948A000C948A000C948A0070
:100010000C948A000C948A000C948A000C948A0038
:100020000C948A000C948A000C948A000C948A0028
:100030000C948A000C948A000C948A000C948A0018
:100040000C94A3030C948A000C948A000C948A00EC
:100050000C948A000C948A000C948A000C948A00F8
:100060000C948A000C948A000000000024002700F1
:100070002A0000000000250028002B0000000000DE
:1000800023002600290004040404040404040202DA
:100090000202020203030303030301020408102007
:1000A0004080010204081020010204081020000012
:1000B0000008000201000003040700000000000027
:1000C0000000F20511241FBECFEFD8E0DEBFCDBF88
:1000D00011E0A0E0B1E0E4E7FCE002C005900D9281
:1000E000AC33B107D9F721E0ACE3B1E001C01D9218
:1000F000A337B207E1F710E0C2E6D0E004C02197D1
:10010000FE010E943206C136D107C9F70E94ED03F5
:100110000C9438060C940000AF92BF92CF92DF92FD
:10012000EF92FF920F931F93CF93DF936C017B01AC
:100130008B01040F151FEB015E01AE18BF08C0173D
:10014000D10759F06991D601ED91FC910190F081B0
:10015000E02DC6010995892B79F7C501DF91CF9173
:100160001F910F91FF90EF90DF90CF90BF90AF90D5
:100170000895833081F028F4813099F08230A9F01D
:1001800008958730A9F08830C9F08430B1F48091A7
:1001900080008F7D03C0809180008F7780938000E6
:1001A000089584B58F7784BD089584B58F7DFBCF86
:1001B0008091B0008F778093B00008958091B00057
:1001C0008F7DF9CFCF93DF93282F30E0F901E255EF
:1001D000FF4F8491F901E656FF4FD491F901EA5798
:1001E000FF4FC491CC23A1F081110E94B900EC2FE4
:1001F000F0E0EE0FFF1FE458FF4FA591B491EC9192
:10020000ED2381E090E009F480E0DF91CF91089543
:1002100080E090E0FACF1F93CF93DF93282F30E058
:10022000F901E255FF4F8491F901E656FF4FD49151
:10023000F901EA57FF4FC491CC23A9F0162F811181
:100240000E94B900EC2FF0E0EE0FFF1FEE58FF4FB9
:10025000A591B4918FB7F894EC91111108C0D09585
:10026000DE23DC938FBFDF91CF911F910895DE2BAA
:10027000F8CFCF93DF9390E0FC01E656FF4F249137
:100280008A579F4FFC0184918823D1F090E0880F1A
:10029000991FFC01E859FF4FA591B491FC01EE585C
:1002A000FF4FC591D49161110EC09FB7F8948C9106
:1002B000E22FE0958E238C932881E223E8839FBF71
:1002C000DF91CF9108958FB7F894EC91E22BEC93E6
:1002D0008FBFF6CF3FB7F89480913D0190913E01DA
:1002E000A0913F01B091400126B5A89B05C02F3FCA
:1002F00019F00196A11DB11D3FBFBA2FA92F982F4C
:100300008827BC01CD01620F711D811D911D42E046
:10031000660F771F881F991F4A95D1F708958F920E
:100320009F92AF92BF92CF92DF92EF92FF924B01DA
:100330005C010E946A016B017C010E946A016C19D8
:100340007D098E099F09683E734081059105A8F3D8
:1003500021E0821A9108A108B10888EEC80E83E056
:10036000D81EE11CF11C81149104A104B10429F7E9
:10037000FF90EF90DF90CF90BF90AF909F908F90C5
:100380000895089590E080E008958F929F92AF9233
:10039000BF920F931F93CF93DF93CDB7DEB7A19793
:1003A0000FB6F894DEBF0FBECDBF19A2423008F4DD
:1003B0004AE08E010F5D1F4F842E912CB12CA12C91
:1003C000A50194010E941006E62FB901CA01EA3086
:1003D00044F5E05DD801EE938D01232B242B252BD2
:1003E00079F790E080E0109769F0FD01019000201E
:1003F000E9F73197AF014A1B5B0BBD018BE591E03B
:100400000E948C00A1960FB6F894DEBF0FBECDBF40
:10041000DF91CF911F910F91BF90AF909F908F90E0
:100420000895E95CD7CFFC0101900020E9F73197EE
:10043000AF01481B590BBC018BE591E00C948C007B
:10044000CF93DF93EC0160E08E810E940B0161E0AD
:100450008E810E940B0160E08E810E940B018BE86F
:1004600091E00197F1F7DF91CF910895CF92DF925C
:10047000EF92FF920F931F93CF93DF936C017C0158
:1004800087E0E80EF11CD0E0C0E0062F10E0B801D4
:100490000C2E02C0759567950A94E2F76170F7011A
:1004A00081917F010E940B012196C430D10579F71B
:1004B000C601DF91CF911F910F91FF90EF90DF90D8
:1004C000CF900C942002CF92DF92EF92FF920F9385
:1004D0001F93CF93DF93EC01F62E642F8C810E9443
:1004E0000B018D818F3F19F060E00E940B010F2DF1
:1004F00010E08F8584FF25C06E0187E0C80ED11CF7
:10050000F12CE12CB8010E2C02C0759567950A9468
:10051000E2F76170F60181916F010E940B01FFEF1C
:10052000EF1AFF0A88E0E816F10461F7CE01DF91C7
:10053000CF911F910F91FF90EF90DF90CF900C948F
:100540002002B80184E0759567958A95E1F7CE01A0
:100550000E9436026F2DCE01DF91CF911F910F9136
:10056000FF90EF90DF90CF900C94360240E0682F20
:100570008BE591E00C94630281E00E94B6028BE36C
:100580009FE10197F1F70895CF93DF93823029F42B
:1005900090916A01986090936A0180936E01109225
:1005A0006F0180E48093700180E18093710180E5A8
:1005B0008093720161E080915F010E943901809116
:1005C00060018F3F19F061E00E94390161E0809184
:1005D00061010E943901CBE5D1E09E012B553140EC
:1005E00080916A0184FD0BC084E090E02196281779
:1005F000390744F461E08E810E943901EECF88E032
:1006000090E0F4CF8BE39DE00197F1F760E08091FB
:100610005F010E940B0160E0809161010E940B016B
:10062000809160018F3F19F060E00E940B01809182
:100630006A0184FD34C063E08BE591E00E943602DC
:10064000CBE4D6E4CE010197F1F763E08BE591E0CE
:100650000E9436022197F1F763E08BE591E00E945A
:10066000360283E592E00197F1F762E08BE591E0D5
:100670000E94360280916A0180620E94B60284E084
:1006800080936B018CE00E94B6020E94BC0282E063
:1006900080936C0186E0DF91CF910C94B60280626A
:1006A0000E94B6028BE496E40197F1F780916A010B
:1006B00080620E94B60283E592E00197F1F7809193
:1006C0006A0180620E94B602D5CF90916E016917CF
:1006D00010F06FEF690FE62FF0E0E55AFE4F9489B6
:1006E000890F80680C94B60241E00E94630281E0A9
:1006F00090E00895CF92DF92EF92FF926C01990FF4
:10070000EE08FF08F7FE16C041E06DE28BE591E0D0
:100710000E94630266277727CB016C197D098E0939
:100720009F094AE00E94C5010196FF90EF90DF907B
:10073000CF9008954AE0C701B601FF90EF90DF9097
:10074000CF900C94C5011F920F920FB60F921124F7
:100750002F933F938F939F93AF93BF9380914101CA
:1007600090914201A0914301B091440130913C012C
:1007700023E0230F2D3758F50196A11DB11D2093BD
:100780003C018093410190934201A0934301B093B7
:10079000440180913D0190913E01A0913F01B091B3
:1007A00040010196A11DB11D80933D0190933E0132
:1007B000A0933F01B0934001BF91AF919F918F9162
:1007C0003F912F910F900FBE0F901F90189526E824
:1007D000230F0296A11DB11DD2CF789484B58260FB
:1007E00084BD84B5816084BD85B5826085BD85B5D5
:1007F000816085BD80916E00816080936E00109253
:1008000081008091810082608093810080918100CD
:10081000816080938100809180008160809380005E
:100820008091B10084608093B1008091B0008160BC
:100830008093B00080917A00846080937A008091E8
:100840007A00826080937A0080917A008160809340
:100850007A0080917A00806880937A001092C100BB
:1008600082E00E94C40260E081E00E94390160E001
:1008700082E00E94390160E083E00E94390160E07B
:1008800084E00E94390160E085E00E9439010CEBB0
:1008900012E0C0E0D0E0EE24E394F12C85E00E9469
:1008A000E200019771F58091590190915A010497E6
:1008B00041F58091570190915801029711F580916F
:1008C0005501909156010397E1F480915301909165
:1008D00054010497B1F48091510190915201019714
:1008E00081F40E94BC0260E080E00E9465038CE01D
:1008F00091E00E94130268E873E180E090E00E94BA
:100900008F0185E00E94E200019709F065C08091A7
:10091000590190915A01049709F45EC080915701E2
:1009200090915801029709F457C080915501909118
:100930005601039709F450C08091530190915401DE
:10094000049709F449C08091510190915201019797
:1009500009F042C00E94BC0260E080E00E94650392
:1009600084E191E00E941302C0904F01D0905001A9
:100970008FEFC81AD80AD0925001C0924F0161E09F
:1009800080E00E946503C6010E947A0320914F0116
:1009900030915001209FC001219F900D309F900DFC
:1009A000112490934E0180934D012FB7F8948091BC
:1009B000410190914201A0914301B09144012FBFA8
:1009C0008093490190934A01A0934B01B0934C014D
:1009D000109252011092510180914D0190914E015F
:1009E0004091450150914601609147017091480145
:1009F0004C01092E000CAA08BB0884169506A60611
:100A0000B70630F12091510130915201232B01F5AD
:100A10002FB7F8948091410190914201A091430138
:100A2000B09144012FBF4091490150914A0160911A
:100A30004B0170914C01841B950BA60BB70B809357
:100A4000450190934601A0934701B0934801C4CF5C
:100A50000197092E000CAA0BBB0B481759076A0710
:100A60007B0760F061E080E00E9465038AE191E02D
:100A70000E941302109252011092510185E00E94CF
:100A8000E200892B09F0A8C060E080E00E946503C5
:100A90008EE291E00E94130284E00E94E20001973E
:100AA00011F58091530190915401099724F010920F
:100AB000540110925301C0905301D09054018FEF14
:100AC000C81AD80AD0925401C092530161E084E060
:100AD0000E946503C6010E947A0364EF71E080E022
:100AE00090E00E948F0183E00E94E200019711F5DF
:100AF0008091550190915601099724F0109256016A
:100B000010925501C0905501D09056018FEFC81A30
:100B1000D80AD0925601C092550161E083E00E944C
:100B20006503C6010E947A0364EF71E080E090E003
:100B30000E948F0182E00E94E200019711F58091EE
:100B4000570190915801099724F010925801109282
:100B50005701C0905701D09058018FEFC81AD80A9A
:100B6000D0925801C092570161E082E00E94650373
:100B7000C6010E947A0364EF71E080E090E00E9479
:100B80008F0181E00E94E200019711F580915901E7
:100B900090915A01099724F010925A01109259012C
:100BA000C0905901D0905A018FEFC81AD80AD0923C
:100BB0005A01C092590161E081E00E946503C601BB
:100BC0000E947A0364EF71E080E090E00E948F0160
:100BD000F0925201E0925101209709F45FCE0E94F9
:100BE00000005CCEEBE5F1E01382128284E091E03C
:100BF000918380838CE084838FEF85838BE0868371
:100C00008AE0878389E0808788E0818787E0828720
:100C10001386148615861686178681E00C94C40206
:100C2000A1E21A2EAA1BBB1BFD010DC0AA1FBB1FF0
:100C3000EE1FFF1FA217B307E407F50720F0A21B62
:100C4000B30BE40BF50B661F771F881F991F1A94CF
:100C500069F760957095809590959B01AC01BD01F9
:100C6000CF010895EE0FFF1F0590F491E02D099438
:100C7000F894FFCF0000000074038C00C201C10192
:100C800067616E61737465004552524F52002020B7
:100C90002020202020202020202020202020202054
:100CA0002000696E6772657365203432333400004A
:107800000C94343C0C94513C0C94513C0C94513CE1
:107810000C94513C0C94513C0C94513C0C94513CB4
:107820000C94513C0C94513C0C94513C0C94513CA4
:107830000C94513C0C94513C0C94513C0C94513C94
:107840000C94513C0C94513C0C94513C0C94513C84
:107850000C94513C0C94513C0C94513C0C94513C74
:107860000C94513C0C94513C11241FBECFEFD8E036
:10787000DEBFCDBF11E0A0E0B1E0ECE9FFE702C060
:1078800005900D92A230B107D9F712E0A2E0B1E065
:1078900001C01D92AD30B107E1F70E942D3D0C945F
:1078A000CC3F0C94003C982F959595959595959582
:1078B000905D8F708A307CF0282F295A8091C0000B
:1078C00085FFFCCF9093C6008091C00085FFFCCF60
:1078D0002093C6000895282F205DF0CF982F809127
:1078E000C00085FFFCCF9093C6000895EF92FF92F1
:1078F0000F931F93EE24FF2487018091C00087FD22
:1079000017C00894E11CF11C011D111D81E4E8164B
:1079100082E4F8068FE0080780E0180770F3E09132
:107920000401F091050109958091C00087FFE9CF1E
:107930008091C6001F910F91FF90EF9008950E94D3
:10794000763C982F8091C00085FFFCCF9093C600B5
:1079500091362CF490330CF09053892F089597555D
:10796000892F08951F930E949F3C182F0E949F3CCF
:107970001295107F810F1F9108951F93182F882350
:1079800021F00E94763C1150E1F71F9108951F935A
:10799000182F0E94763C803249F0809103018F5F5E
:1079A000809303018530C1F01F9108958091C0003C
:1079B00085FFFCCF84E18093C6008091C00085FFE5
:1079C000FCCF1093C6008091C00085FFFCCF80E102
:1079D0008093C6001F910895E0910401F091050184
:1079E00009951F9108950E94763C803241F0809164
:1079F00003018F5F80930301853081F008958091AA
:107A0000C00085FFFCCF84E18093C6008091C00058
:107A100085FFFCCF80E18093C6000895E0910401CA
:107A2000F09105010995089540E951E08823A1F0FE
:107A30002D9A28EE33E0FA013197F1F721503040CA
:107A4000D1F72D9828EE33E0FA013197F1F7215064
:107A50003040D1F7815061F708953F924F925F9285
:107A60006F927F928F929F92AF92BF92CF92DF924E
:107A7000EF92FF920F931F93CF93DF93000080E16B
:107A80008093C4001092C50088E18093C10086E015
:107A90008093C2005098589A259A81E00E94143D24
:107AA00024E1F22E9EE1E92E85E9D82E0FE0C02ECA
:107AB00010E1B12EAA24A394B1E49B2EA6E58A2E50
:107AC000F2E57F2EE0E26E2E79E4572E63E5462E36
:107AD00050E5352E0E94763C8033B1F18133B9F107
:107AE000803409F46FC0813409F476C0823409F41B
:107AF00085C0853409F488C0803531F1823521F1A3
:107B0000813511F1853509F485C0863509F48DC0BC
:107B1000843609F496C0843709F403C1853709F423
:107B200072C1863709F466C0809103018F5F80932C
:107B30000301853079F6E0910401F0910501099582
:107B40000E94763C803351F60E94F33CC3CF0E94E2
:107B5000763C803249F78091C00085FFFCCFF092DF
:107B6000C6008091C00085FFFCCF9092C600809136
:107B7000C00085FFFCCF8092C6008091C00085FFC9
:107B8000FCCF7092C6008091C00085FFFCCF609250
:107B9000C6008091C00085FFFCCF5092C600809146
:107BA000C00085FFFCCF4092C6008091C00085FFD9
:107BB000FCCF3092C6008091C00085FFFCCFB09210
:107BC000C60088CF0E94763C863808F4BDCF0E945C
:107BD000763C0E94F33C7ECF0E94763C803809F4CC
:107BE0009CC0813809F40BC1823809F43CC1883942
:107BF00009F48FC080E00E94C73C6CCF84E10E94F2
:107C0000BD3C0E94F33C66CF85E00E94BD3C0E94D3
:107C1000F33C60CF0E94763C809306010E94763C44
:107C2000809307010E94F33C55CF0E94763C80333D
:107C300009F41DC183E00E94BD3C80E00E94C73C66
:107C400049CF0E94763C809309020E94763C809343
:107C5000080280910C028E7F80930C020E94763C79
:107C6000853409F415C18091080290910902892B8D
:107C700089F000E010E00E94763CF801E85FFE4FDA
:107C800080830F5F1F4F80910802909109020817AF
:107C9000190788F30E94763C803209F045CF809125
:107CA0000C0280FF01C16091060170910701660F0F
:107CB000771F7093070160930601A0910802B091AD
:107CC00009021097C9F0E8E0F1E09B01AD014E0F09
:107CD0005F1FF999FECF32BD21BD819180BDFA9A17
:107CE000F99A2F5F3F4FE417F50799F76A0F7B1F4B
:107CF00070930701609306018091C00085FFFCCF5F
:107D0000F092C6008091C00085FFFCCFB092C60003
:107D1000E1CE83E00E94C73CDDCE82E00E94C73CFA
:107D2000D9CE0E94763C809309020E94763C8093D3
:107D300008028091060190910701880F991F909386
:107D40000701809306010E94763C853409F4A6C0A1
:107D500080910C028E7F80930C020E94763C8032D0
:107D600009F0B8CE8091C00085FFFCCFF092C6002C
:107D7000609108027091090261157105B9F140E046
:107D800050E080910C02A82FA170B82FB27011C0E2
:107D9000BB2309F45CC0E0910601F0910701319624
:107DA000F0930701E09306014F5F5F4F46175707B7
:107DB000E8F4AA2369F3F999FECF209106013091E6
:107DC000070132BD21BDF89A90B58091C00085FFB2
:107DD000FCCF9093C6002F5F3F4F30930701209355
:107DE00006014F5F5F4F4617570718F38091C00099
:107DF00085FDE5CE8091C00085FFF8CFE0CE81E023
:107E00000E94C73C67CE0E94763C803209F08CCE3F
:107E10008091C00085FFFCCFF092C6008091C00029
:107E200085FFFCCFE092C6008091C00085FFFCCFAB
:107E3000D092C6008091C00085FFFCCFC092C600E2
:107E40008091C00085FFFCCFB092C60043CEE09188
:107E50000601F091070194918091C00085FFFCCF4D
:107E60009093C6009CCF80E10E94C73C33CE0E9415
:107E7000763C0E94763C182F0E94763C112309F430
:107E800083C0113009F484C08FE00E94C73C22CE29
:107E900080910C02816080930C02E5CE80910C02EF
:107EA000816080930C0259CF809107018823880F4D
:107EB000880B8A2180930B02809106019091070123
:107EC000880F991F90930701809306018091080203
:107ED00080FF09C080910802909109020196909359
:107EE000090280930802F894F999FECF1127E091D6
:107EF0000601F0910701C8E0D1E08091080290915D
:107F00000902103091F40091570001700130D9F34B
:107F100003E000935700E89500915700017001308D
:107F2000D9F301E100935700E89509901990009169
:107F3000570001700130D9F301E000935700E89534
:107F40001395103498F011270091570001700130FB
:107F5000D9F305E000935700E895009157000170B0
:107F60000130D9F301E100935700E895329602976A
:107F700009F0C7CF103011F00296E5CF112480919F
:107F8000C00085FFB9CEBCCE8EE10E94C73CA2CD19
:0E7F900085E90E94C73C9ECDF894FFCF80008B
:00000001FF
